:0300A500DFFE2259
:10007300C283AF08120084C280D281C282C283AF1E
:010083000874
:10008400AE07AF061EEF600C7FF51200A57FF512D8
:0500940000A580EE2232
:100003007D007C0275083CC280C281C282C283ED3E
:100013001DAE0470011C4E6021D280C281C28212C7
:100023000073C280C281D282120080C280C281C2A8
:1000330082D283AF0812008480D5C280C281C2827B
:10004300C2837C027D00ED1DAE0470011C4E601F57
:10005300C280C281C282D283AF08120084C280C22E
:0F00630081D282120073D280C28112007E80D7B8
:01007200226B
:0300000002009962
:0C009900787FE4F6D8FD758108020003B2
:00000001FF
