:100753002A2A2A20202020202020202020535443EE
:10076300313243354136305332202020202020209F
:1007730020202A2A2A0D0A002A2A2A202020202083
:1007830050434638353931204144204441D7AABB30
:10079300BBCAB5D1E920202020202A2A2A0D0A002D
:1007A3002A2A2A20202020202032303133C4EA3163
:1007B300D4C239C8D5383A32393A313620202020CC
:1007C30020202A2A2A0D0A00706366383539315FE2
:1007D30061646368616E6E656C003164003D002E78
:1007E3000033640056202000706366383539315F6A
:1007F30064613D3078003268000D0A0032640034D1
:1008030064003564003468003031323334353637B0
:080813003839414243444546D7
:0C0AC100041200000000011100011800E8
:100A7900D2B6120ACED2B7120ACEC2B6120ACEC264
:040A8900B7020ACED8
:0F0AB200C2B6120ACED2B7120ACED2B6020ACEFE
:020A06008F0D52
:100A0800750F01E4F50EE50D30E704D2B68002C299
:100A1800B6120ACED2B7120ACEC2B7E50D25E0F556
:100A28000D120ACE050EE50EC3940840D9D2B612AF
:100A38000ACED2B7120ACE30B603E4F50FC2B71207
:040A48000ACEAF0F14
:010A4C002287
:0209BA008F0D9F
:1009BC00E4F50ED2B6F50F120ACEC2B7120ACED299
:1009CC00B7120ACEE50E25E0F50E30B602050E057F
:1009DC000FE50FC3940840DF120ACEC2B7120ACE3D
:1009EC00E50D6004C2B68002D2B6120ACED2B7129E
:0909FC000ACEC2B7120ACEAF0EFA
:010A050022CE
:090ACE007F037E02DEFEDFFA0068
:010AD70022FC
:100AA0008F0C120A797F90120A06AF0C120A060206
:020AB0000AB288
:100A6400120A797F91120A06E4FF1209BA8F0C1256
:040A74000AB2AF0C07
:010A7800225B
:100A4D008F0C120A797F90120A067F40120A06AFA8
:070A5D000C120A06020AB2A6
:10060A00E58720E40843871043C76080035387EFD8
:10061A00759850758E15759CFDD2ACD2AF7FE07E71
:10062A002E1200037BFF7A077953120A8D7BFF7A19
:10063A0007797B120A8D7BFF7A0779A3120A8DE468
:10064A00F516F517AF17120A4D7F3C7E001200030C
:10065A000517E51770020516C3E516940140E57FF4
:10066A00407E1F1200037516007517FEAF17120A97
:10067A004D7F3C7E00120003E51715177002151610
:10068A00E517451670E6E5112440FF120AA0120A82
:10069A0064E48F15F514F513F5127F887E13FDFCBB
:1006AA00AB15AA14A913A8121204EDE4FB7A01F9F6
:1006BA00F81205788F158E148D138C127BFF7A072A
:1006CA0079CB120A8DAF117E001200267BFF7A07C2
:1006DA0079E0120A8DE47BE87A03F9F8AF15AE14D3
:1006EA00AD13AC121205781200267BFF7A0779E265
:1006FA00120A8DE47BE87A03F9F8AF15AE14AD134C
:10070A00AC12120578AE02AF037BFF7A0779E412C6
:10071A00002C7BFF7A0779E7120A8DAF18120A4D6F
:10072A007BFF7A0779EB120A8DAF187E007BFF7A7E
:10073A000779F912002C7BFF7A0779FC120A8D7F60
:09074A00D87E0E12000302069095
:0300230002081BB5
:10081B00C0E0C0F0C083C082C0D075D000C000C0A3
:0D082B0001C002C003C004C005C006C00724
:10083800750A00750B00E4FFFEC2AF309835C3EFB0
:100848009410EE9427502C309822C298C3E50B944C
:1008580002E50A940050077408250BF8A699050BC1
:10086800E50B7002050A7E007F0080D20FBF0001F1
:100878000E80CBE50B6401450A7013E508B4AA05A0
:1008880075C7208026E50804FF1209B2801DE50B14
:100898006402450A7015E508B44008E5095403F5F3
:0D08A800118008E508B45003850918D2AF8F
:1008B500D007D006D005D004D003D002D001D00097
:0B08C500D0D0D082D083D0F0D0E03241
:10095C007C277D10120498EF2430FF1209B2AE0CE4
:10096C00AF0D7C277D101204987E037FE8CFCDCF8E
:10097C00CECCCE120498EF2430FF1209B2AE0CAFDD
:10098C000D7C277D101204987E037FE8CFCDCFCE4F
:10099C00CCCE1204987F647E00CFCDCFCECCCE12BD
:0609AC000498EF2430FF67
:0809B2008F993099FDC29922D2
:100A8D0012047FFF600C1209B2740129F9E43AFADD
:030A9D0080EE22C6
:060026007BFF7A0779DD83
:0A002C008E0C8F0D8B0E8A0F8910C9
:1000360074FF9007DD6B7008E965827003EA6583DB
:10004600600302010CC3E50D940AE50C940050030D
:10005600020358C3E50D9464E50C94005013AE0CEE
:10006600AF0D7C007D641204987F0A1209A3020377
:1000760058C3E50D94E8E50C9403502DAE0CAF0D76
:100086007C037DE812099EAE0CAF0D7C037DE81261
:1000960004987E007F64CFCDCFCECCCE1204987E5E
:1000A600007F0A1209A5020358C3E50D9410E50C5A
:1000B6009427AE0CAF0D501C7C037DE81209ABAE45
:1000C6000CAF0D7C037DE812099EAE0CAF0D7C03D0
:1000D6007DE8801812095CAE0CAF0D7C277D1012EE
:1000E60004987E037FE8CFCDCFCECCCE1204987E87
:1000F600007F64CFCDCFCECCCE1204987E007F0A8F
:100106001209A5020358AB0EAA0FA91074FF900797
:10011600FF650E700AE51065827004E50F65836061
:10012600030201DFC3E50D9464E50C94005015AE9F
:100136000CAF0D7C007D641204987E007F0A1209C4
:10014600A5020358C3E50D94E8E50C9403502DAEC3
:100156000CAF0D7C037DE812099EAE0CAF0D7C033F
:100166007DE81204987E007F64CFCDCFCECCCE1230
:1001760004987E007F0A1209A5020358C3E50D9470
:1001860010E50C9427AE0CAF0D501C7C037DE812D5
:1001960009ABAE0CAF0D7C037DE812099EAE0CAF29
:1001A6000D7C037DE8801812095CAE0CAF0D7C2730
:1001B6007D101204987E037FE8CFCDCFCECCCE1231
:1001C60004987E007F64CFCDCFCECCCE1204987E2D
:1001D600007F0A1209A5020358AB0EAA0FA91074D4
:1001E600FF9007E4650E700AE51065827004E50F5E
:1001F60065836003020292C3E50D94E8E50C94035F
:10020600502DAE0CAF0D7C037DE812099EAE0CAFEF
:100216000D7C037DE81204987E007F64CFCDCFCE9F
:10022600CCCE1204987E007F0A1209A5020358C399
:10023600E50D9410E50C9427AE0CAF0D501C7C0315
:100246007DE81209ABAE0CAF0D7C037DE812099E6A
:10025600AE0CAF0D7C037DE8801812095CAE0CAFC6
:100266000D7C277D101204987E037FE8CFCDCFCE7C
:10027600CCCE1204987E007F64CFCDCFCECCCE12EA
:1002860004987E007F0A1209A5020358AB0EAA0F36
:10029600A91074FF900802650E700AE51065827059
:1002A60004E50F6583705DC3E50D9410E50C942796
:1002B600AE0CAF0D501C7C037DE81209ABAE0CAF43
:1002C6000D7C037DE812099EAE0CAF0D7C037DE824
:1002D600801812095CAE0CAF0D7C277D10120498B5
:1002E6007E037FE8CFCDCFCECCCE1204987E007FA2
:1002F60064CFCDCFCECCCE1204987E007F0A1209F1
:10030600A5020358AB0EAA0FA91074FF9008056545
:100316000E700AE51065827004E50F65837044AEC1
:100326000CAF0D12095CAE0CAF0D7C277D101204CC
:10033600987E037FE8CFCDCFCECCCE1204987E0038
:100346007F64CFCDCFCECCCE1204987E007F0A122A
:1003560009A5AE0CAF0D7C007D0A120498ED243081
:1003660002047AAB0EAA0FA91074FF9007F9650E66
:10037600700AE51065827004E50F65836003020468
:1003860007C3E50C9401E50CC4501FF854F0C86887
:10039600FEE50DC4540F48240BF58274083EF58320
:1003A600E493FF1209B27E008046540F7E00240BB0
:1003B600F582EE3408F583E493FF1209B2E50C5496
:1003C6000F240BF582EE3408F583E493FF1209B28D
:1003D600E50CC4F854F0C8E50DC4540F487E00542B
:1003E6000F240BF582EE3408F583E493FF1209B26D
:1003F600E50D540F240BF582EE3408F583E4938063
:1004060073AB0EAA0FA91074FF900808650E700A48
:10041600E51065827004E50F6583705CE50CC454D5
:100426000F7E00240BF582EE3408F583E493FF1269
:1004360009B2E50C540F240BF582EE3408F583E47B
:1004460093FF1209B2E50CC4F854F0C8E50DC45484
:100456000F487E00540F240BF582EE3408F583E432
:1004660093FF1209B2E50D540F240BF582EE340802
:08047600F583E493FF1209B2C3
:01047E00225B
:10000300D3EF9400EE94004015E4FDFC0DBD000118
:0E0013000CED647C4C70F5EF1F70E51E80E272
:0100210022BC
:030000000208D023
:0C08D000787FE4F6D8FD75811802091746
:10047F00BB010689828A83E0225002E722BBFE027B
:09048F00E32289828A83E49322AE
:10049800BC000BBE0029EF8DF084FFADF022E4CC48
:1004A800F875F008EF2FFFEE33FEEC33FCEE9DEC11
:1004B800984005FCEE9DFE0FD5F0E9E4CEFD22ED57
:1004C800F8F5F0EE8420D21CFEADF075F008EF2FA1
:1004D800FFED33FD4007985006D5F0F222C398FD92
:0504E8000FD5F0EA222F
:1004ED00E88FF0A4CC8BF0A42CFCE98EF0A42CFCAE
:1004FD008AF0EDA42CFCEA8EF0A4CDA8F08BF0A42C
:10050D002DCC3825F0FDE98FF0A42CCD35F0FCEB8A
:10051D008EF0A4FEA9F0EB8FF0A4CFC5F02ECD394F
:0F052D00FEE43CFCEAA42DCE35F0FDE43CFC22BC
:10053C0075F008758200EF2FFFEE33FECD33CDCC76
:10054C0033CCC58233C5829BED9AEC99E5829840F9
:10055C000CF582EE9BFEED9AFDEC99FC0FD5F0D6D6
:10056C00E4CEFBE4CDFAE4CCF9A88222B800C1B900
:10057C000059BA002DEC8BF084CFCECDFCE5F0CB3E
:10058C00F97818EF2FFFEE33FEED33FDEC33FCEB77
:10059C0033FB10D703994004EB99FB0FD8E5E4F932
:1005AC00FA227818EF2FFFEE33FEED33FDEC33FC1F
:1005BC00C933C910D7059BE99A4007EC9BFCE99A13
:1005CC00F90FD8E0E4C9FAE4CCFB2275F010EF2F58
:1005DC00FFEE33FEED33FDCC33CCC833C810D70758
:1005EC009BEC9AE899400AED9BFDEC9AFCE899F893
:0E05FC000FD5F0DAE4CDFBE4CCFAE4C8F92226
:1008DC0002060AE493A3F8E493A34003F68001F222
:1008EC0008DFF48029E493A3F85407240CC8C3331D
:1008FC00C4540F4420C8834004F456800146F6DFEC
:10090C00E4800B0102040810204080900AC1E47EB0
:10091C00019360BCA3FF543F30E509541FFEE493E0
:10092C00A360010ECF54C025E060A840B8E493A3A7
:10093C00FAE493A3F8E493A3C8C582C8CAC583CAD2
:10094C00F0A3C8C582C8CAC583CADFE9DEE780BE8A
:010ACD000028
:00000001FF
