:0300000002006C8F
:0C006C00787FE4F6D8FD75810A0200825E
:10003800EF30E004C2A08002D2A0EF30E103C2A1F9
:0400480022D2A122FD
:10001F00C2A3D2A2C2A6E4F580D2A4C2A4AF8085A7
:09002F008090EF20E7F0C2A52249
:10004C00AE0712001FC2A3C2A28E80D2A4C2A422E9
:10005C00AE0712001FD2A3C2A28E80D2A4C2A422C9
:100003007EB87D40E4FC7F031200387FB812004CB9
:0C001300ED4420FF12004C7F0002005C56
:0A0078007F3F12004C7FC002004CD5
:0800820012007812000380FE59
:00000001FF
