:030000000211D713
:0C11D700787FE4F6D8FD75815302121EEB
:10048000FF1FEFF7F7EF1FFFFFF0EFDFDFEFF0FFEA
:10049000FFFFEFEF07FFFFFFFFFFDFDFC0DFDFFF43
:1004A000FF8FF7F7F7F70FFFFFCFD7DBDDDECFFFCB
:1004B000FFCFF7F7F7778FFFFFE7DFDEDEDDE3FF44
:1004C000FFFF7FBFCF07FFFFFFF9FADBDBC0DBDBFE
:1004D000FF07777777F7F7FFFFE6DFDFDFEEF1FF64
:1004E000FF1FEF77776FFFFFFFF0EEDFDFDFE0FF4B
:1004F000FFE7F7F77797E7FFFFFFFFC1FEFFFFFF7B
:10050000FF8F77F7F7778FFFFFE3DDDEDEDDE3FFB9
:10051000FF0FF7F7F7EF1FFFFFFEEDDDDDEEF0FF5A
:10052000FFEF6BACCDE1CDADEFFF81BDBDBD81FF78
:10053000FFFFFFFF00B6B6B6B6B6B6B600FFFFFFC8
:10054000FFF733B5B6B7B533E7FF8077777B7D1F0D
:10055000FFFF00EDEDAD6D80FFFF8177777B7D1FA5
:10056000FFFFFFDBDBDBDBDB03DDDDDDDCDDFFFFF6
:10057000FFFDFDFDFDFDBD7D80FDFDFDFDFDFDFDE6
:10058000FFFFFBDBDBDBDBDB00DBDBDBDBDBFBFFEA
:10059000FFDEDEEEF6027CBEDCFAF6EED6DABEBE9A
:1005A000FFFFFFFF41D5D5D515D5D5D5C1FFFFFF3D
:1005B000FFFFBBBDB6B6B6B680B6B6B6B6BEBFFF19
:1005C000FFFFFB00DBDBDB00FBFF01DDDDDD01FF0F
:1005D000FF77B7D0F6F6E650B7CFF0FDBD7D80FFD0
:1005E000FFEF9FFD73FFFF016D6D6D6D6D01FFFFEF
:1005F000FFFBFB81FEBF81BDBD81BD81BDBD81BF54
:10060000FFFFFF03DBDBDB03DAD9DB03DBDBDBFB39
:10061000FFBFCF707F7BB3AADADADAAAB37F7F7F1E
:10062000FFFFFFFFFFFFFFFFFFFFFFFFFFFFFFFFDA
:10063000FFFFFFC9C9FFFFFFFFFFFFFFFFFFFFFF36
:10064000FFF9F6F61907F3FBFDFDFDFDFDFBE1FFEC
:10065000FFFFFFFFF8E0CFDFBFBFBFBFBFDFEFFF90
:10066000FFFFFFFFFFFFFFFF00FFFFFFFFFFFFFF99
:10067000FFFFFFFFFFFDF3C700C7F3FDFFFFFFFF15
:10068000FFFFFF7F7FFFFFFFFFFFFF9E9EFFFFFF3C
:10069000FFFFFFFFFFFFFFFFFFFEFEFEFEFEFEFE71
:1006A000FF7F9FEFEFEFEF8FFFE0DFBFBFBFDFEF19
:1006B000FFC7BB7D7D7D7DBBFFFFFFFFFFFFFFFF12
:1006C000FFFFDFE738BBBBBBBB03BBBBBBBBFBFF59
:1006D000FFFBFBFBF8FBFBFBFB00FBFBFBFBFBFB64
:1006E000FFFFFFFF01DDDDDDDDDDDDDDDD01FFFF26
:1006F000FF7FBFCFF0FDFDFDFDFDFDBD7D80FFFF58
:10070000FFFFFFFF017D7D7D7D7D7D7D01FFFFFF83
:10071000FFFFFFFF00BFBFBFBFBFBFBF00FFFFFFA7
:10072000FFFF037B7B7B03FFEFEFEFEFEF00EFEFCC
:10073000FFFFC0EFEFEFC0FFFFFEF9BF7F80FFFFBD
:10074000FF7FBFDF6F77797F7F7F7C73EFDFBF7FB6
:10075000FFFF7FBFDFE7F8FFBF7FBFC0FFFFFFFFE7
:10076000FFDBDB5B01DCDDFF3FC7FF00FFF7EF9F37
:10077000FFF7F9FE00FEF97E7FBFBFD8EFF3FCFF65
:10078000FF7F7F7F7F7F7F7F7F7F7F7F7F7F7F7FF9
:10079000FFFFFFFFFFFFFFFFFFFFFFFFFFFFFFFF69
:1007A000FFFFFFF7F7F7F7F7F7F7F7F7F7F7FFFFB1
:1007B000FFEFEFEFEFEFEFEFEFEFEFEFEFEFEFEF39
:1007C000FFFFFB7B7B7B7B7B7B7B7B7B7B7BFBFFED
:1007D000FFDFDFDFDFDFDFDFDFDFDFDFDFDFDFDF09
:1007E000FFFF03FBFBFB03FBFBFB03FBFBFB03FF2D
:0D07F000FFFF80D7DBDCDFDFDFDFDEDDDDDC
:1007FD00DD80FFFFFFFDBDBDBD3D81BDBDBDBD3D6F
:10080D00FDFDFFFFBFBFBFBF87B8BFBFBFBFBF806D
:10081D00BFBFBFFFDFDFDFDFDFDFDEDDD3DFDFDF2A
:10082D00DFDFDFFFFFBFDFEFF3FCFFFFFFFEFDFBB1
:10083D00E79FFFFFFFFFFF017D7D7D7D7D7D7D01BD
:10084D00FFFFFFFFFFFFFF00BFBFBFBFBFBFBF0069
:10085D00FFFFFF0001020001020001020000000184
:08086D000101020202183C3CEB
:1015F700011A000713001D11110C02130123000625
:101607001D00020304050601110001120001240058
:04161700021B0000B2
:10166000EF1FAA0670011E4A6013E4FCFDC3ED944F
:0E16700079EC940050EA0DBD00010C80F022D0
:10171800EF30E004C2A08002D2A0EF30E103C2A102
:0417280022D2A12206
:10173F00C2A3D2A2E4F580D2A4C2A4E58020E7F42C
:01174F002277
:1017020044B8FF12170A7F4012173FC2A3C2A28F2A
:0617120080D2A4C2A42253
:10167E00AB40AA41A9428C82758300121089FF12D9
:0D168E00173FD2A3C2A28F80D2A4C2A42213
:0F1761007F3F12170A7FB812170A7F4002170A3C
:10157F00121718E4FEEEC3940874809480501BEE8B
:10158F00121702E4FDEDC394407480948050087FDD
:0B159F00FF12168D0D80EE0E80DB2287
:1014ED00A905121718E4FBEBC3940874809480507F
:1014FD0022EB121702E4FEEEC394407480948050E8
:10150D00087FFF12168D0E80EEE9FF7E0012166029
:04151D000B80D42249
:1015D200AE07EEC39440748094805018EDC3940912
:1015E20074809480500EED44B8FF12170AEE444006
:0515F200FF12170A22A0
:10147600E4FB7F018D3E8B3FE4FC121718AD3FAFB6
:101486003E1215D2ECC3940874809480500612164E
:101496007E0C80F0E53F04FDAF3E1215D2ECC394FE
:0E14A6001074809480500612167E0C80F02286
:10126300E4FB7F028D308B31E4FC121718AD31AFF4
:10127300301215D2ECC39408748094805024E53561
:10128300AB32AA33A934600B8C82758300121089A8
:10129300F480088C82758300121089FF12168D0C5E
:1012A30080D2E53104FDAF301215D2ECC394107433
:1012B3008094805024E535AB32AA33A934600B8C7B
:1012C30082758300121089F480088C827583001262
:0A12D3001089FF12168D0C80D22244
:1013A3007D107F018D448B45E4FC121718AD45AFCA
:1013B300441215D2ECC3941074809480500CAB4645
:1013C300AA47A9481216840C80EAE54504FDAF44F8
:1013D3001215D2ECC3942074809480500CAB46AAAF
:0A13E30047A9481216840C80EA2284
:10175000EFC4540FFEEF540FFDEE75F00AA42DFFF9
:011760002266
:10172C00EF75F00A84C454F0FEEF75F00A84E5F00E
:03173C002EFF225B
:1015AA00C2B7C2B6D2B7E4FEEEC394087480948080
:1015BA005015EF30E004D2B58002C2B5D2B6EFC3FF
:0815CA0013FFC2B60E80E122FE
:10164000D2B5E4FEEEC39408748094805011EFC3C9
:1016500013FF30B503430780D2B6C2B60E80E52231
:0B1770001215AAAF051215B0C2B72277
:09177B001215AA121640C2B72291
:101521008B498A4A894B7C8DECC394817480948069
:10153100401EAF0412177B121750AB49054BE54B08
:10154100AA4A7002054A14F9EF1210B61C1C80D881
:011551002277
:101436008B4C8A4D894EE4FD7F8E1217707C8CECA6
:10144600C39480748094804020AB4C054EE54EAA30
:101456004D7002054D14F9121070FF12172CAD07CE
:10146600AF041217701C1C80D67D807F8E02177009
:1016EA00E4FDFCC3ED9FEE6480F8EC64809850073B
:0816FA000DBD00010C80EC2283
:10169B00C2917F1D7E001216EAD2917F031216EAC9
:0D16AB00A291E433FB7F191216EAAF03226F
:1016B800C291EF3395E0FEEF64014E7002D2917F44
:0916C800057E001216EAD29122FF
:10161C00AB07E4FAEAC3940874809480500FEB543F
:10162C0001FF1216B8EBA2E713FB0A80E77F057ED9
:04163C00000216EAA8
:1016D100C291D291E4FFEFC39403748094805003CC
:0916E1000F80F3A291E433FF2213
:10155200E4FBFAEAC3940874809480501D1216D1F9
:10156200EF600DA8027401088002C333D8FC420365
:0D1572007F067E001216EA0A80D9AF032220
:1012DD0012169B7FCC12161C7F4412161C7F057EA6
:1012ED00001216EA12169B7FCC12161C7FBE121628
:1012FD001CE4F9E9C3940274809480500C121552C9
:10130D00742529F8A6070980EAE526FE7C00E42568
:10131D0025FFEC3EFE5307F053060FC3EF94FFEE8F
:10132D009400500FEF94F0EE940040077CFF7DFF8A
:10133D001210C8EEC4F854F0C868FEEFC4540F483C
:02134D00FF227D
:10134F007546FF7547057548207B037D207F011289
:10135F0013A77546FF7547057548407B037D307FA2
:10136F00011213A77546FF7547057548607B03E4A7
:10137F00FD7F021213A77546FF7547057548807BE1
:10138F00037D107F021213A77FC47E091216607FA0
:04139F000302157FB1
:100C2700851351E55175F00A84E5F075F010A42499
:100C370080F9740435F07540FFF54189427D08124B
:100C47001476E55175F00A84F55175F00A84E5F0DC
:100C570075F010A42480F9740435F07540FFF54150
:100C67008942E4FBFD7F0112147A7540FF75410646
:100C7700754290E4FB7D107F0112147A851551E5CA
:100C87005175F00A84E5F075F010A42480F9740416
:100C970035F07540FFF5418942E4FB7D207F011265
:100CA700147AE55175F00A84F55175F00A84E5F078
:100CB70075F010A42480F9740435F07540FFF541F0
:100CC7008942E4FB7D187F0112147A7540FF754154
:100CD700067542907D28121476851651E55175F0F8
:100CE7000A84E5F075F010A42480F9740435F075D2
:100CF70040FFF5418942E4FB7D387F0112147AE514
:100D07005175F00A84F55175F00A84E5F075F01015
:100D1700A42480F9740435F07540FFF5418942E455
:100D2700FB7D307F0112147A851751E55175F00A62
:100D370084E5F075F010A42480F9740435F075404B
:100D4700FFF54189427B027D087F0112147AE55144
:100D570075F00A84F55175F00A84E5F075F010A472
:100D67002480F9740435F07540FFF54189427B0210
:100D7700E4FD7F0112147A7540FF754106754280C4
:100D87007B027D107F0112147A851851E55175F0A9
:100D97000A84E5F075F010A42480F9740435F07521
:100DA70040FFF54189427B027D207F0112147AE5DD
:100DB7005175F00A84F55175F00A84E5F075F01065
:100DC700A42480F9740435F07540FFF54189427B0E
:100DD700027D187F0112147A7540FF75410675422E
:100DE700807B027D287F0112147A851951E55175A0
:100DF700F00A84E5F075F010A42480F9740435F046
:100E07007540FFF54189427B027D387F0112147AD4
:100E1700E55175F00A84F55175F00A84E5F075F02F
:100E270010A42480F9740435F07540FFF541894218
:100E37007B027D307F0112147A8514517546FF7548
:100E470047057548A07B04E4FD7F011213A775468B
:100E5700FF7547057548C07B041213A3E55175F06C
:100E670020A42480F9740735F07546FFF5478948B3
:090E77007B047D207F010213A71A
:10000600850852E55275F00A84E5F075F010A424CF
:1000160080F9740435F07532FFF5338934E51170D3
:1000260008E51270047F0180027F008F357D08127B
:100036001263E55275F00A84F55275F00A84E5F00C
:1000460075F010A42480F9740435F07532FFF53389
:100056008934E5117008E51270047F0180027F0083
:100066008F35E4FBFD7F021212677540FF7541066E
:10007600754280E4FB7D107F0212147A850952E5F1
:100086005275F00A84E5F075F010A42480F9740422
:1000960035F07532FFF5338934E51164017008E5F2
:1000A6001270047F0180027F008F357D201212635B
:1000B600E55275F00A84F55275F00A84E5F075F09C
:1000C60010A42480F9740435F07532FFF5338934B1
:1000D600E51164017008E51270047F0180027F005B
:1000E6008F35E4FB7D187F021212677540FF75415C
:1000F60006754280E4FB7D287F0212147A850A5237
:10010600E55275F00A84E5F075F010A42480F974C0
:100116000435F07532FFF5338934E5116402700851
:0E012600E51270047F0180027F008F35E4FB3C
:100134007D387F02121267E55275F00A84F5527514
:10014400F00A84E5F075F010A42480F9740435F005
:100154007532FFF5338934E51164027008E51270D5
:10016400047F0180027F008F35E4FB7D307F021223
:100174001267850B52E55275F00A84E5F075F010AC
:10018400A42480F9740435F07532FFF5338934E51D
:1001940011700AE512640170047F0180027F008FF0
:1001A400357B027D087F02121267E55275F00A84DE
:1001B400F55275F00A84E5F075F010A42480F97402
:1001C4000435F07532FFF5338934E511700AE51210
:1001D400640170047F0180027F008F357B02E4FD9F
:1001E4007F021212677540FF7541067542807B02DB
:1001F4007D107F0212147A850C52E55275F00A8440
:10020400E5F075F010A42480F9740435F07532FF1C
:10021400F5338934E5116401700AE5126401700450
:100224007F0180027F008F357B027D207F021212C6
:1002340067E55275F00A84F55275F00A84E5F075A5
:10024400F010A42480F9740435F07532FFF5338975
:1002540034E5116401700AE512640170047F0180C1
:03026400027F0016
:100267008F357B027D187F021212677540FF75413B
:10027700067542807B027D287F0212147A850D5213
:10028700E55275F00A84E5F075F010A42480F9743E
:100297000435F07532FFF5338934E5116402700ACD
:1002A700E512640170047F0180027F008F357B02B5
:1002B7007D387F02121267E55275F00A84F5527590
:1002C700F00A84E5F075F010A42480F9740435F081
:1002D7007532FFF5338934E5116402700AE512645B
:1002E7000170047F0180027F008F357B027D307FA4
:1002F70002121267850E52E55275F00A84E5F07511
:10030700F010A42480F9740435F07532FFF53389B1
:1003170034E511700AE512640270047F0180027FE0
:10032700008F357B047D087F02121267E55275F056
:100337000A84F55275F00A84E5F075F010A424805C
:10034700F9740435F07532FFF5338934E511700A15
:10035700E512640270047F0180027F008F357B0401
:10036700E4FD7F021212677540FF754106754280F2
:100377007B047D107F0212147A850F52E55275F0C7
:100387000A84E5F075F010A42480F9740435F0753B
:0A03970032FFF5338934E5116401EB
:1003A100700AE512640270047F0180027F008F35BC
:1003B1007B047D207F02121267E55275F00A84F5F5
:1003C1005275F00A84E5F075F010A42480F97404E4
:1003D10035F07532FFF5338934E5116401700AE5B2
:1003E10012640270047F0180027F008F357B047DDF
:1003F100187F021212677540FF7541067542807BB6
:10040100047D287F0212147A851052E55275F00A94
:1004110084E5F075F010A42480F9740435F0753288
:10042100FFF5338934E5116402700AE51264027044
:10043100047F0180027F008F357B047D387F0212AB
:100441001267E55275F00A84F55275F00A84E5F0F9
:1004510075F010A42480F9740435F07532FFF5337A
:100461008934E5116402700AE512640270047F01A7
:0F04710080027F008F357B047D307F020212678F
:06178400120C2702000612
:1014B400E4FFFEEEC3940374809480502BEE75F029
:1014C40003A42408F8E66515701BEE75F003A42444
:1014D40009F8E6B5140FEE75F003A4240AF8E6B58E
:0914E40013037F01220E80CB22CC
:100FAF001212DD8E4F8F50E51C65507004E51B65E6
:100FBF004F700302106F854F1B85501C7546FF75D0
:100FCF0047057548E07B06E4FD7F011213A77546C0
:100FDF00FF7547067548007B061213A37546FF750C
:100FEF0047067548207B067D207F011213A7AE4F61
:100FFF00AF507C007D0A1210DAEFC4F8540FC868A6
:10100F00FFEEC454F048FE74802FF974043E75400F
:10101F00FFF54189427B067D207F0112147AAE4F86
:10102F00AF507C007D0A1210DAEDC4F8540FC86877
:10103F00FFECC454F048FE74802FF974043E7540E1
:10104F00FFF54189427B067D287F0112147A754690
:10105F00FF7547067548407B067D307F011213A749
:01106F00225E
:10087500EF70030209AF6401700C741D2523F8E6BF
:100885002413F8068036EFFD7C006402700C741D9D
:100895002523F8E62413F8168022ED64034C700630
:1008A500E52324058009EF64047011E5232401FF85
:1008B500E433FE7C007D061210DA8D23AF237E0023
:1008C500EF6401702A741D2523F8E6FD2413F8E66C
:1008D500FB7A00700974132DF8760C0209AAD3EB84
:1008E500940CEA6480948050030209AA02099FEFE0
:1008F50064024E7029741D2523F8E6FF2413F8E6DB
:10090500FD7C00700974132FF8761E0209AAD3ED39
:10091500941EEC6480948050030209AA807CAF2366
:100925007E00EF64037025741D2523F8E6FD24136E
:10093500F8E6FB7A00700874132DF876188066D3F4
:10094500EB9418EA64809480405B804EEF64044E1B
:10095500701F741D2523F8E6FF2413F8E6FD7C00BF
:0209650070021E
:100967008023D3ED943CEC6480948040368029E565
:10097700236405702E741D2523F8E6FF2413F8E67B
:10098700FD7C00700874132FF8763C8016D3ED9425
:100997003CEC64809480400B741D2523F8E62413F7
:1009A700F876017F0312157FC3E5239403748094BF
:1009B70080E5235013C454F0FD7546FF754706754F
:1009C7004860E4FB7F01801324FDC454F0FD7546A5
:1009D700FF754706754860E4FB7F021213A775464B
:1009E700FF7547067548C07B02E4FD7F011213A718
:1009F7007546FF7547067548E07B021213A37546D7
:100A0700FF7547077548007B027D207F011213A7FA
:100A17007546FF7547077548207B02E4FD7F021284
:100A270013A77546FF7547077548407B027D107F02
:100A3700021213A77546FF7547077548607B027D4D
:100A4700207F021213A7851353E55375F00A84E537
:100A5700F075F010A42480F9740435F07540FFF5A3
:100A67004189427B047D087F0112147AE55375F0B2
:100A77000A84F55375F00A84E5F075F010A4248014
:0F0A8700F9740435F07540FFF54189427B04E4B2
:100A9600FD7F0112147A851553E55375F00A84E536
:100AA600F075F010A42480F9740435F07540FFF554
:100AB6004189427B047D187F0112147AE55375F053
:100AC6000A84F55375F00A84E5F075F010A42480C5
:100AD600F9740435F07540FFF54189427B047D10B9
:100AE6007F0112147A851653E55375F00A84E5F0F2
:100AF60075F010A42480F9740435F07540FFF541B3
:100B060089427B047D287F0112147AE55375F00A29
:100B160084F55375F00A84E5F075F010A42480F985
:100B2600740435F07540FFF54189427B047D207FD2
:100B36000112147A851753E55375F00A84E5F075AA
:100B4600F010A42480F9740435F07540FFF541894E
:100B5600427B047D087F0212147AE55375F00A84FD
:100B6600F55375F00A84E5F075F010A42480F97445
:100B76000435F07540FFF54189427B04E4FD7F02B0
:100B860012147A851853E55375F00A84E5F075F06A
:100B960010A42480F9740435F07540FFF5418942AC
:100BA6007B047D187F0212147AE55375F00A84F5EA
:100BB6005375F00A84E5F075F010A42480F97404E6
:050BC60035F07540FF51
:100BCB00F54189427B047D107F0212147A851953FB
:100BDB00E55375F00A84E5F075F010A42480F974E0
:100BEB000435F07540FFF54189427B047D287F0277
:100BFB0012147AE55375F00A84F55375F00A84E5FF
:100C0B00F075F010A42480F9740435F07540FFF5ED
:0C0C1B004189427B047D207F0202147A94
:10112F00C2A730920C309309309406309503021108
:10113F00D67F327E0012166030920C3093093094B5
:10114F00063095030211D620921BE51275F003A409
:10115F0024082511F8E62401FFE433FEE511900879
:10116F007293FD8022209332E51275F003A42408B8
:10117F002511F8E6FFE51190087293FD2FFFE43378
:10118F00CF24FFCF34FFFE7C001210DAE51275F08A
:10119F0003A424082511F8A60522209406E524248B
:1011AF00088007209521E5242401FFE433FE7C000D
:1011BF007D091210DA8D24E52490086093F511E56E
:0811CF002490086993F5122237
:100E8000753610E4F538F5397F031217181217611B
:100E900012134FD288D2A8D2AFE51A606030920CFC
:100EA00030930930940630950320964A7F647E0083
:100EB00012166030920C309309309406309503205E
:100EC00096D72092047F01802F2093047F028028F0
:100ED0002094047F0380212095047F04801A2096AB
:100EE000B8E4F51AD2AFD2A7F51BF51CFB7A00794E
:100EF0001312143680A3E4FF120875809C7B007ADD
:100F000000791312152112112F121784120FAF122C
:100F100014B4EF600C75390185153C85143B8513BD
:100F20003AE5397003020FA5E53B75F03CA4FBAA36
:100F3000F0AE3CE53C75F00EA4CE75F010A4FFE5D4
:100F4000F02EFEEF2BFFEE3AFE7C00EF253AFBEC95
:100F50003EFAE51475F03CA4F58285F083AE15E504
:100F60001575F00EA4CE75F010A4FFE5F02EFEEF7F
:100F70002582FFEE3583FEEF2513FFEC3ECFC39BAA
:100F8000CF9AFEC3648094805007C3E49FFFE49E21
:080F9000FED3EF9405EE64802E
:100F980094805004C2908005D290E4F5397F327E67
:070FA80000121660020E9911
:030003000213EDF8
:1013ED00C0E0C0F0C083C082C0D075D000C000C0C6
:1013FD0001C002C003C004C005C006C007C2AFE4EF
:10140D00FF1208757F0312157FC2A7751A01D00749
:10141D00D006D005D004D003D002D001D000D0D05A
:09142D00D082D083D0F0D0E0326F
:1011E300020E80E493A3F8E493A34003F68001F294
:1011F30008DFF48029E493A3F85407240CC8C3330D
:10120300C4540F4420C8834004F456800146F6DFDB
:10121300E4800B01020408102040809015F7E47E5F
:10122300019360BCA3FF543F30E509541FFEE493D0
:10123300A360010ECF54C025E060A840B8E493A397
:10124300FAE493A3F8E493A3C8C582C8CAC583CAC2
:10125300F0A3C8C582C8CAC583CADFE9DEE780BE7A
:01161B0000CE
:10107000BB010689828A83E0225002E722BBFE027E
:09108000E32289828A83E49322B1
:10108900BB010CE58229F582E5833AF583E022501C
:1010990006E92582F8E622BBFE06E92582F8E22266
:0D10A900E58229F582E5833AF583E4932280
:1010B600BB010689828A83F0225002F722BBFE0119
:0210C600F32213
:1010C800EF8DF0A4A8F0CF8CF0A428CE8DF0A42E3C
:0210D800FE22F6
:1010DA00BC000BBE0029EF8DF084FFADF022E4CCFA
:1010EA00F875F008EF2FFFEE33FEEC33FCEE9DECC3
:1010FA00984005FCEE9DFE0FD5F0E9E4CEFD22ED09
:10110A00F8F5F0EE8420D21CFEADF075F008EF2F52
:10111A00FFED33FD4007985006D5F0F222C398FD43
:05112A000FD5F0EA22E0
:00000001FF
