:100000000C9455090C9472090C9472090C947209A1
:100010000C94B8090C9472090C9472090C9472092E
:100020000C9472090C9472090C9472090C94720964
:100030000C9472090C9472090C9472090C94720954
:100040000C9472090C9472090C9472090C94720944
:100050000C94720900000000000000000000000085
:1000600000000000000000183C3C3C181800181864
:10007000000000000000006666660000000000004E
:100080000000000000000036367F3636367F3636F8
:10009000000000000018183C666030180C06663C32
:1000A00018180000000070D8DA760C18306E5B1B50
:1000B0000E000000000000386C6C38606F66663B14
:1000C00000000000000000181818000000000000E8
:1000D000000000000000000C1818303030303018DC
:1000E000180C00000000003018180C0C0C0C0C1838
:1000F000183000000000000000361C7F1C36000095
:1001000000000000000000000018187E1818000011
:1001100000000000000000000000000000001C1CA7
:100120000C180000000000000000007E000000002D
:1001300000000000000000000000000000001C1C87
:100140000000000000000006060C0C18183030609B
:10015000600000000000001E333737333B3B331E86
:10016000000000000000000C1C7C0C0C0C0C0C0CA3
:10017000000000000000003C6666060C1830607E3F
:10018000000000000000003C6666061C0666663C37
:10019000000000000000003030363636667F06066C
:1001A000000000000000007E6060607C06060C78A5
:1001B000000000000000001C18307C666666663C8B
:1001C000000000000000007E060C0C1818303030D3
:1001D000000000000000003C6666763C6E66663CEF
:1001E000000000000000003C666666663E0C1838A1
:1001F0000000000000000000001C1C0000001C1C8F
:100200000000000000000000001C1C0000001C1C7E
:100210000C180000000000060C18306030180C06A6
:10022000000000000000000000007E007E000000D2
:10023000000000000000006030180C060C18306050
:10024000000000000000003C66660C18180018183A
:10025000000000000000007EC3C3CFDBDBCFC07F07
:1002600000000000000000183C6666667E66666658
:10027000000000000000007C6666667C6666667CA6
:10028000000000000000003C666660606066663C3E
:1002900000000000000000786C66666666666C7898
:1002A000000000000000007E6060607C6060607E96
:1002B000000000000000007E6060607C60606060A4
:1002C000000000000000003C666660606E66663EEE
:1002D00000000000000000666666667E6666666670
:1002E000000000000000003C181818181818183CEE
:1002F0000000000000000006060606060666663CD2
:100300000000000000000066666C6C786C6C66662D
:100310000000000000000060606060606060607E5F
:10032000000000000000006363776B6B6B63636326
:10033000000000000000006363737B6F676363630A
:10034000000000000000003C666666666666663C6B
:10035000000000000000007C6666667C60606060F3
:10036000000000000000003C666666666666663C4B
:100370000C0600000000007C6666667C6C666666A3
:10038000000000000000003C666030180C06663C6F
:10039000000000000000007E18181818181818181F
:1003A0000000000000000066666666666666663CE1
:1003B00000000000000000666666666666663C181F
:1003C000000000000000006363636B6B6B36363621
:1003D0000000000000000066663418182C6666668F
:1003E00000000000000000666666663C18181818D9
:1003F000000000000000007E06060C183060607EE1
:10040000000000000000003C303030303030303030
:1004100030303C3C0000006060303018180C0C0696
:10042000060000000000003C0C0C0C0C0C0C0C0C2A
:100430000C0C3C3C00183C66000000000000000072
:1004400000000000000000000000000000000000AC
:100450000000FFFF0038180C000000000000000042
:100460000000000000000000003C06063E66663EFC
:100470000000000000000060607C66666666667CC6
:100480000000000000000000003C66606060663C08
:100490000000000000000006063E66666666663ED6
:1004A0000000000000000000003C66667E60603CCA
:1004B000000000000000001E3030307E3030303050
:1004C0000000000000000000003E66666666663EB2
:1004D00006067C7C00000060607C66666666666678
:1004E0000000000000001818007818181818187E6E
:1004F0000000000000000C0C003C0C0C0C0C0C0C60
:100500000C0C7878000000606066666C786C66663B
:100510000000000000000078181818181818187E3D
:100520000000000000000000007E6B6B6B6B6B63D3
:100530000000000000000000007C666666666666DB
:100540000000000000000000003C66666666663C35
:100550000000000000000000007C66666666667CA5
:100560006060606000000000003E66666666663E91
:10057000060606060000000000666E70606060609F
:100580000000000000000000003E60603C06067CA9
:100590000000000000000030307E30303030301E6F
:1005A0000000000000000000006666666666663EA9
:1005B00000000000000000000066666666663C18E9
:1005C000000000000000000000636B6B6B6B3636B0
:1005D00000000000000000000066663C183C6666F3
:1005E0000000000000000000006666666666663C6B
:1005F0000C18F0F000000000007E060C1830607E41
:10060000000000000000000C1818183060301818A6
:10061000180C0000000000181818181818181818DE
:1006200018181818000000301818180C060C1818A4
:100630001830000000000000000071DB8E00000098
:1006400000000000000000000000000000001C1C72
:100650000000000002000100010000007FFC0020FB
:100660000030102008400C40044004800080010449
:10067000FFFE00000000FFFE010001003FF831888E
:1006800029482528318829482528210821082108BA
:100690002128201001000100010801107D2005C063
:1006A00005400920092011101118210EC104010074
:1006B000050002001040102013FE1000180055FC29
:1006C0005504910411FC1020112811241226142223
:1006D00010A01040104010407DF012503990D1C849
:1006E000124A65043FF8110811081FF8011001F8BB
:1006F0007E0C0008010001003FFC01001FF8020011
:10070000FFFE042008183FEEC8240FE00820082050
:100710000FE0000008800C800840102010302018E6
:10072000400E9FE40420042004200420082010A090
:1007300020404000404023FC20400BFC884057FCF8
:10074000500013F8220823F8E20823F822082208B0
:100750002228221000FC7C844484448444FC7C8451
:100760004484448444FC7C84008401040104020425
:100770000414000808400C201918210841000280C8
:100780000440082010182FF6C814081008100FF0A5
:10079000081000007FFE02001FF010101FF0101064
:1007A0001FF010101FF008000FF0082016402180E5
:1007B0000E70700E010001000100010009400D20C3
:1007C00019101118210C41068104010001000100DB
:1007D00005000200411021102FFE0110800057FE7D
:1007E000512017FC2524252425B4C64C44844404F8
:1007F0004414440804200420FFFE04200520008047
:10080000FFFE10001000100010001000100010007B
:100810001FFC000006207820082008207DFC092409
:100820001D241B2429FC2924482088200820082076
:100830000820082000007FFC02000420081013F8A4
:100840003D10010001003FF8010001000100FFFE22
:100850000000000001000100010001000100FFFE96
:100860000100028002800240044004200810101899
:10087000200E400400200E20F020102410A4FEA81A
:1008800030B03920546094501050108810881104F2
:100890001206140410201820102020203E202230A0
:1008A000622852269424142008201420232040C0BB
:1008B000803E00001FF010101FF010101FF002000B
:1008C0003FF80220FFFE03000FF03810CFF00810B1
:1008D0000FF008100200020004003FF82008200872
:1008E000200820083FF820082008200820083FF8AA
:1008F000200800003FF801007FFE410415500A283F
:100900003C8024F83D5012205CD8530650F85C8897
:10091000E0F80088010000803FFE24447FF8044096
:100920001FF804407FFC04400B2010D8220E4184A5
:1009300000C000801FF801007FFE41041D7001000F
:100940001D70080008F87E881CF82A8828F8488856
:1009500008F80888008078F8491052A0504060B02C
:10096000534E48404BF86840524043FC40404040A2
:1009700040404040040004000BF01420624001801D
:1009800003800C60321EC10400C008800600018094
:1009900000E0004000003FF801007FFE41041D70B0
:1009A00001001D7000003FF800081FF80008000853
:1009B0003FF8000800003FF82108210821083FF80F
:1009C0002108210821083FF8210801000100010049
:1009D000010001000000FFF0006000C00180030082
:1009E00006000C001800300020006004400460067F
:1009F0003FFC000000007FFE010001003FFC2104DD
:100A00002104210422842244243428242004201494
:100A10002008000000007FFE01000100010001002D
:100A200001000100010001000100010001000500BA
:100A30000200000000800090008800803FFE2080BF
:100A40002088208820502060206020A023124C0A9B
:100A50004006800200003FF00010001000103FF040
:100A60002010200020002000200020042004200668
:100A70001FFC0000010000803FFE20802FF820882E
:100A80003FFE208820882FF82088214042204410F3
:100A9000880C1008020001007FFC000010100820E4
:100AA0000440FFFE010001007FF801000100010089
:100AB00001000100000001F83F00010001000100F9
:100AC0000100FFFE010001000100010001003FFCE8
:100AD0000000000000803E9002A02448145008202E
:100AE00037D0C10E01047FFC010002400420081829
:100AF000300CC00400003FF00020004000800100E6
:100B000001000104FFFE01000100010001000100DD
:100B10000500020000103FF802100210021002103F
:100B200002103FF0041004100410041004147FFE9F
:100B300000000000020001007FFE40049FF0010061
:100B40001FF0111011101FF0111011101FF00C20C8
:100B50003018C008000003803C7C22442244224418
:100B60002244224422442A44745C24480840104011
:100B70006040000000003FFC200020002FF8200013
:100B80003FFE25002508249C24A02440452046182B
:100B90008406000000003FF02010201020102010DC
:100BA0003FF0201020002000200020042004200618
:100BB0001FFC0000080008001FF8110021002100A0
:100BC0004104FFFE010001000100010001000100DD
:100BD000010000000100010001003FF801000100D8
:100BE000FFFE03000380054005200918310EC104F3
:100BF00001000100010001003FF82108210821083F
:100C00003FF82108210821083FF8210801000100D0
:100C1000010001000000FFFE028002803FF82288F0
:100C200024882488287830083FF8200820082008E5
:100C30003FF820080040005000483FFE2040204080
:100C4000204820483E502020206020A043124C0A1B
:100C50008006000202000180FFFE01000220043035
:100C600008601FC8091C02300C6070E003180C0CEF
:100C70007004000000000000000000000000000000
:100C800000047FFE000000000000000000000000E3
:100C900000000000000000103FF80000000000000D
:100CA0000000000000000000000000047FFE0000C3
:100CB00000000000000000007FFC000000000000B9
:100CC00000003FF8000000000000000000007FFE70
:100CD0000000000000007FFC448444844484448479
:100CE000448444844884487C5004600440047FFC6D
:100CF0004004000000007FF8020002000200020031
:100D000002203FF004200420042004200424FFFEDD
:100D1000000000000400030001800100FFFE00004D
:100D2000000004800640042008100818100C200C55
:100D3000400800000000010001000100010001FE68
:100D40007F00010001000100010001040104010411
:100D500000F8000000000040046006400440044029
:100D6000044008200820101010102008400E8004B5
:100D70000000000002000200020002207FF00220BA
:100D80000220042004200420082008241024202607
:100D9000403C0000010001000100010001000100D1
:100DA000FFFE01000100010001000100010001003F
:100DB00001000000040004000BF0142062400180D8
:100DC00003800C60321EC10400C008800600018050
:100DD00000E00040009078904BFE4890789048905A
:100DE0004BFE480079F84908490849F8490849087C
:100DF000A9F891081000080008047EFE04240824C5
:100E000012243424582494241244104410841114BD
:100E100012080000010001000100010001000100B2
:100E2000FFFE0100010001000100010001000100BE
:100E30000100000008200820082008200820FFFEEC
:100E400008200820082008200820082008200FE09B
:100E500008200000000000007FFC000000000000EF
:100E600000003FF8000000000000000000007FFECE
:100E70000000000008000FFC1080108020804FF858
:100E80008880088008800880FFFE00800080008045
:100E90000080008007F004100410041007F0041014
:100EA0000410041007F0041008100810101020504F
:100EB0004020000000001FF0101010101010101043
:100EC0001FF0101010101010101010101FF0101044
:100ED00000000000020001047FFE06601188124835
:100EE00014281FF801003FFC244428242FF4201468
:100EF00020142008400027FC304020400080008063
:100F0000E1A022902488288C208820802080500016
:100F10008FFE0000010001007FFE020004000FF0C0
:100F2000181028104FF0881008100FF008100890C3
:100F30000870082000003FFC0100010001000100D2
:100F40007FFE010001000280024004200818100EFC
:100F50002004400000001FF810081FF810081FF8B8
:100F6000010011001FFC210021004FF801000100C9
:100F70007FFE00002200227C7F4422443E44227CEB
:100F80003E4422442244FF7C0044248422844314AF
:100F90008108000000007FFE00800080008000804B
:100FA000108010FC10801080108010801080FFFED8
:100FB00000000000001000107C10441047FE441098
:100FC0007C104510449044907C10001000100010DC
:100FD000005000200C20F02010201128FDA4112228
:100FE00032223A205422542290041008101010602B
:100FF00011801600200013FC1004400447E4442430
:10100000442447E44424442447E440044004400486
:1010100040144008400021F031102110011001104F
:10102000E20E25F8210821082090209028603090B9
:10103000230E0C043FF8244824483FF801007FFCAD
:1010400002001FF010101FF010101FF010101FF002
:101050001010FFFE04AE530A57485526BD0D26500A
:101060000D954446AAB9056A4D09AD4224AEB604B1
:10107000AE4A6A4DBE0A4D520D25465D52BA0B541A
:101080004E0D6A43296D37095B4B749BC10497541D
:101090000A4B485B25BC06A55006D4454ADAB8027F
:1010A000B64D0957422497B704974A664B3E0D4AFE
:1010B000510EA54656D4BA05AD4E02B6443937385E
:1010C000092E4B7C96BF0C95530D4A486DA53B0BE2
:1010D000554F056A454AADB9025D4D092D422C9523
:1010E000B60A954A7B4ABD06CA510B5546555ABBAE
:1010F00004DA4E0A5B43352BB8052B4C8A953F0E1C
:10110000955206AA487AD53C0AB54F04B6454A57C7
:10111000390A574D0526423E93350D954975AABEAD
:10112000056A51096D4654AEBB04AD4F0A4D434D9F
:1011300026B70D254B8D52BF0B54520B6A47696D74
:101140003C095B50049B454A4BB90A4B4DAB25C249
:1011500006A55406D4496ADA3D0AB6510937465401
:1011600097BB04974F064B4436A5370EA54A86B267
:10117000BF05AC530AB6475936BC092E500C9645EC
:101180004D4AB80D4A4C0DA54125AAB6056A497AC3
:10119000ADBD025D52092D475C95BA0A954E0B4ACA
:1011A000434B55370AD54A955ABF04BA530A5B4890
:1011B000652BBC052B500A9345474AB906AA4C0A31
:1011C000D54124DAB604B64A69573D0A4E510D2678
:1011D000465E933A0D534D05AA4336B537096D4B1C
:1011E000B4AEBF04AD530A4D486D25BC0D254F0D5F
:1011F00052445DAA380B5A4C056D4124ADB6049B90
:101200004A7A4BBE0A4B510AA5465B52BA06D24EE9
:101210000ADA42355B3709374B8497C10497530686
:101220004B4866A53C0EA54F06B2444AB6380AAEF6
:101230004C092E423C97350C96497D4ABD0D4A51CA
:101240000DA54555AABA056A4E0A6D43452EB70548
:101250002D4B8A95BF0A95530B4A476B553B0AD5D0
:101260004F055A454A5D380A5B4C052B423A93B606
:101270000693497729BD06AA510AD54654DABA041D
:10128000B64E0A57434527380D264A8E933E0D52D7
:10129000520DAA4766B53B056D4F04AE454A4EB99F
:1012A0000A4D4C0D15412D92B50011241FBECFE5FE
:1012B000D4E0DEBFCDBF13E0A0E6B0E0E6E2FCE2A2
:1012C00002C005900D92A233B107D9F713E0A2E353
:1012D000B3E001C01D92AD33B107E1F70E94860C67
:1012E0000C9411160C9400008330E9F0843028F43B
:1012F000813079F0823090F407C08530F1F085308C
:10130000B8F0863039F520C088EC8093730085ED05
:1013100018C082ED809373008BEB13C086EB809333
:1013200073008EEF0EC088EC809373008DEF09C0C0
:101330008BEC8093730084EC04C08EEC809373007C
:1013400085EE80937400089581EC8093730089EF9B
:1013500080937400089587E085BD88E082BD8FED9D
:1013600084BD82B58570E9F780E489BF78940895DB
:101370001F920F920FB60F9211248F938FED84BDA1
:1013800002B402FCFDCF80913203882331F48091B6
:1013900034038F5F8093340305C0809133038F5FE4
:1013A0008093330381E080939F008F910F900FBE55
:1013B0000F901F90189580B390E08F709070892BDC
:1013C00009F418C284EF91E028EC30E0F90131977C
:1013D000F1F70197D9F780B390E08F709070892B67
:1013E00009F408C2809B10C080913A038F5F8093FC
:1013F0003A0380913A03873018F081E080933A03F2
:1014000081E080933203E4C1819BE7C08091320385
:10141000813009F0E2C082E08093330380913A0387
:10142000813069F4809134038F5F8093340380911D
:1014300034038C3309F0CCC110923403C9C18091BC
:101440003A03823069F4809135038F5F80933503CE
:10145000809135038C3309F0BBC110923503B8C1BC
:1014600080913A03833069F48091A1008F5F80936B
:10147000A1008091A100883109F0AAC11092A100B9
:10148000A7C180913A03843009F085C08091380368
:101490008230F9F480913603909137038370907015
:1014A000892B51F4809136039091370364E670E004
:1014B0000E94FE15892B69F48091360390913703C1
:1014C00060E971E00E94FE15892B19F087C1109226
:1014D000390380913803823011F580913603909161
:1014E000370383709070892B51F48091360390916B
:1014F000370364E670E00E94FE15892B51F4809159
:1015000036039091370360E971E00E94FE15892B44
:1015100031F4809139038C3114F0109239038091A9
:1015200038038130C1F0809138038330A1F080917D
:101530003803853081F080913803873061F08091E5
:101540003803883041F0809138038A3021F080914F
:1015500038038C3031F4809139038F3114F01092BC
:10156000390380913803843061F0809138038630EC
:1015700041F080913803893021F0809138038B301D
:1015800031F4809139038E3114F010923903809137
:1015900039038F5FECC080913A03853059F4809114
:1015A00038038C3019F481E080933803809138033C
:1015B0008F5FEEC08091360390913703835398403C
:1015C00031F48CE697E09093370380933603809153
:1015D0003603909137030196F0C0829BF3C080914F
:1015E0003203813009F0EEC082E0809333038091B2
:1015F0003A03813069F4809134038150809334033D
:101600008091340387FFE4C08BE380933403E0C010
:1016100080913A03823069F4809135038150809340
:1016200035038091350387FFD3C08BE38093350367
:10163000CFC080913A03833069F48091A10081503A
:101640008093A1008091A10087FFC2C087E18093B1
:10165000A100BEC080913A03843009F08BC0809114
:101660003803823001F580913603909137038370FF
:101670009070892B51F4809136039091370364E682
:1016800070E00E94FE15892B71F4809136039091D1
:10169000370360E971E00E94FE15892B21F0A4C098
:1016A0008EE18093390380913803823019F580915F
:1016B00036039091370383709070892B51F4809199
:1016C00036039091370364E670E00E94FE15892B83
:1016D00051F4809136039091370360E971E00E94E4
:1016E000FE15892B39F480913903813019F48DE18D
:1016F00080933903809138038130C1F080913803A1
:101700008330A1F080913803853081F080913803D7
:10171000873061F080913803883041F08091380340
:101720008A3021F0809138038C3039F4809139036C
:10173000813019F480E2809339038091380384303A
:1017400061F080913803863041F080913803893010
:1017500021F0809138038B3039F480913903813046
:1017600019F48FE18093390380913903815080937C
:1017700039032EC080913A03853069F48091380393
:10178000813019F48DE080933803809138038150C3
:10179000809338031DC080913603909137038C5697
:1017A000974031F483E398E09093370380933603B6
:1017B000809136039091370301979093370380937C
:1017C000360306C00E94BB0F10923A0310923203F8
:1017D00081E080939F008093A00008958091390359
:1017E0008D310CF074CE75CE80913903813009F0C3
:1017F0005ACF56CF0895809132038823B9F1809152
:101800003A038330C1F0843028F4813051F08230C3
:1018100039F50CC08530C9F0853090F0863001F57F
:1018200019C083EC80939C008BEE18C087EB8093EB
:101830009C0086ED13C08AEC80939C0081EB0EC067
:1018400088EC80939C0085ED09C084ED80939C001A
:1018500082EC04C084EC80939C008AEE80939D000F
:1018600080E061E042E950E00E9403100895DF93B8
:10187000CF9300D000D0CDB7DEB7809136039091E2
:10188000370360913803409139039E012F5F3F4F2A
:101890000E94B7122981822F6AE00E94D115805DD3
:1018A00080937600822F0E94D115905D90937700EF
:1018B0002A81822F0E94D115805D80937800822F2B
:1018C0000E94D115905D909379002B81822F0E9408
:1018D000D115805D80937C00822F0E94D115905D90
:1018E00090937D002C81822F0E94D115805D809382
:1018F0008000822F0E94D115905D909381000F90FF
:101900000F900F900F90CF91DF910895AF92BF92FB
:10191000CF92DF92FF920F931F93DF93CF93CDB7B8
:10192000DEB763970FB6F894DEBF0FBECDBF8FE36F
:1019300084BB8FEF8ABB8BBB20916100E09160007C
:10194000609162008091630090E0805D944144E684
:10195000249F90011124820F931F4AE0649FB001DD
:101960001124860F971FF0E0F09728EE33E0B901BD
:10197000E69F9001E79F300DF69F300D1124820FF6
:10198000931F9093370380933603809166002091D4
:1019900067002051849FC0011124280F2093380331
:1019A00080916A0020916B002051849FC001112416
:1019B000280F2093390380EB94E00E94BF100E940F
:1019C000E00F0E94BB0F80E060E00E94B60F87E04E
:1019D00085BD88E082BD8FED84BD82B58570E9F755
:1019E00080E489BF7894FF24F3948E010B5F1F4F2E
:1019F0006E010894C11CD11C83E0A82EB12CAC0E42
:101A0000BD1E0E94DB090E94FB0B809134038C33C6
:101A100009F0AEC010923403809135038F5F80933C
:101A20003503809135038C3309F0A2C01092350341
:101A30008091A1008F5F8093A1008091A1008831E7
:101A40000CF496C0F092A0001092A100809138038F
:101A50008230E9F58091360390913703837090705E
:101A6000892B51F4809136039091370364E670E03E
:101A70000E94FE15892B59F480913603909137030B
:101A800060E971E00E94FE15892B09F05CC180912C
:101A900036039091370383709070892B51F48091B5
:101AA00036039091370364E670E00E94FE15892B9F
:101AB00051F4809136039091370360E971E00E9400
:101AC000FE15892B21F4809139038C31A1F180918D
:101AD00038038130C1F0809138038330A1F08091C8
:101AE0003803853081F080913803873061F0809130
:101AF0003803883041F0809138038A3021F080919A
:101B000038038C3021F4809139038F31A1F080911A
:101B10003803843061F080913803863041F0809141
:101B20003803893021F0809138038B30E1F48091C3
:101B300039038E31C1F4F0923903809138038C302F
:101B400034F4809138038F5F8093380311C0F09292
:101B500038038091360390913703019690933703B1
:101B60008093360305C0809139038F5F80933903DA
:101B700080919F008130C1F510929F0080913403C5
:101B80006AE00E94DD15905D90938E008091340391
:101B90006AE00E94DD15805D80938D0080913503A1
:101BA0006AE00E94DD15905D90938A008091350374
:101BB0006AE00E94DD15805D809389008091A1001C
:101BC0006AE00E94DD15905D909386008091A100EF
:101BD0006AE00E94DD15805D8093850080E063E00F
:101BE00045E850E00E9403108091A000813009F088
:101BF00008CF1092A000809136039091370368EED1
:101C000073E00E94FE15605D609360008091360372
:101C10009091370368EE73E00E94FE1564E670E071
:101C20000E94FE15605D6093610080913603909183
:101C3000370368EE73E00E94FE1564E670E00E94D0
:101C4000FE156AE070E00E94FE15605D6093620020
:101C5000809136039091370368EE73E00E94FE1581
:101C600064E670E00E94FE156AE070E00E94FE15D6
:101C7000805D80936300809138036AE00E94DD15E7
:101C8000805D80936600809138036AE00E94DD15D4
:101C9000905D90936700809139036AE00E94DD15A2
:101CA000805D80936A00809139036AE00E94DD15AF
:101CB000905D90936B000E94370C80913603909159
:101CC0003703609138034091390398010E94F8135B
:101CD0008091360390913703609138034091390326
:101CE00096010E94B81389810E947409809136037D
:101CF00090913703609138034091390395010E9418
:101D0000AB1480E064E040E650E00E94031080E005
:101D100065E046E750E00E94031080E066E0A8011D
:101D20000E9403108091360390913703609138032D
:101D30004091390398010E94F61480E067E0A80101
:101D40000E9403105ECE809139038D3109F09FCE41
:101D5000F2CE80913C03089580913B03089517BA19
:101D6000DA9AD998000086B3D99A9FEF97BB089565
:101D700017BADA98D998000086B3D99A9FEF97BB23
:101D800008959FEF97BBDA9888BBD89800000000B1
:101D9000D89A08959FEF97BBDA9A88BBD89800002D
:101DA0000000D89A08959AE02FEF17BADA9AD998D6
:101DB000000086B3D99A27BB8370833011F091500D
:101DC000A1F7892F08959AE02FEF17BADA9AD998D8
:101DD000000086B3D99A27BB82FD02C09150A9F7B3
:101DE000892F08959AE02FEF17BADA9AD998000050
:101DF00086B3D99A27BB83FD02C09150A9F7892FDA
:101E000008959AE02FEF17BADA9AD998000086B3AE
:101E1000D99A27BB86FD02C09150A9F7892F089552
:101E2000EF92FF920F931F93E82E162FF42E0E942D
:101E3000D30E882311F481E023C00FEF07BBDA989B
:101E400018BBD89800000000D89A0E94D30E8823AF
:101E500011F482E015C007BBDA98F8BAD8980000F0
:101E60000000D89A0E94D30E882311F483E008C0A2
:101E700007BBDA9AE8BAD89800000000D89A80E048
:101E80001F910F91FF90EF900895FF920F931F9372
:101E9000F82E162F0E94D30E882311F481E016C06D
:101EA0000FEF07BBDA9818BBD89800000000D89A4B
:101EB0000E94D30E882311F482E008C007BBDA9A8F
:101EC000F8BAD89800000000D89A80E01F910F91CE
:101ED000FF9008951F93182F0E94D30E882311F4AA
:101EE00081E009C08FEF87BBDA9A18BBD898000051
:101EF0000000D89A80E01F9108951F93182F0E9428
:101F0000F20E882311F481E009C08FEF87BBDA98C5
:101F100018BBD89800000000D89A80E01F9108955F
:101F20000E94D30E882311F491E008C017BADA9802
:101F3000D998000096B3D99A8FEF87BB892F08955F
:101F40000F931F93182F062F2EE1829F90011124CB
:101F5000260F311D84E2622F432F0E94100F109331
:101F60003C0300933B031F910F9108958295807F5E
:101F70000E94A00F0895CF93DF9384E260E040E0D9
:101F80000E94100F80EB0E946A0FC0E0D0E00E9418
:101F9000F20E80E00E947D0F21968FE0C030D807BE
:101FA000B1F782EB0E946A0F84E260E040E00E9499
:101FB000100F10923C0310923B03DF91CF910895D4
:101FC00080E460E040E00E94100F882311F08FEF62
:101FD000089581E46EE140E00E94100F82E460E029
:101FE00040E00E94100F83E46EE140E00E94100F79
:101FF00081EA0E946A0F80E80E946A0F88E90E94C5
:102000006A0F80E008958F929F92BF92CF92DF92E5
:10201000EF92FF920F931F93CF93DF93982F862F0A
:102020004A018295807F692F0E94A00FBB2401C0C6
:10203000B394F401EB0DF11D80818823C9F7CC2402
:102040008EC0F401EC0DF11D00819181E0903C0304
:10205000F0903B03013848F51E2D1F5FC02FD0E0E4
:1020600024E0CC0FDD1F2A95E1F7CC5AD14091E155
:10207000D92EDE0C80EB0E946A0F003218F0FE01B0
:10208000849101C080E00E947D0F82EB0E946A0F64
:10209000812F6F2D0E94A00F1F5F21961D1551F7F4
:1020A000083009F44BC0F39449C0E2EAF0E0DD24C3
:1020B0008081081779F48181981761F4CD2DD0E0E3
:1020C00085E0CC0FDD1F8A95E1F7CC5AD94F00E0AF
:1020D00010E006C0D394329680E5D81649F7EECFCB
:1020E0008E2D800F6F2D0E94A00F80EB0E946A0F33
:1020F000EFE4ED1548F0FE0184910E947D0F2196DA
:10210000FE01849121970CC00430110528F480E071
:102110000E947D0F80E004C08FEF0E947D0F8FEF43
:102120000E947D0F82EB0E946A0F0F5F1F4F229665
:1021300000311105A9F6F2E0FF0EC3948DE18F1571
:1021400048F4E0E1EE0EE7FE03C0EE24FF2402C0F7
:10215000F2EEFF0E8E2D6F2D0E94A00FC394CB14B4
:1021600008F46FCF8B2DDF91CF911F910F91FF90CE
:10217000EF90DF90CF90BF909F908F90089508953B
:102180000F931F93082F862F142F602F6695669547
:1021900066950E94A00FE02FF0E0E770F070E65B1C
:1021A000FE4F8081106F812B0E946A0F1F910F914B
:1021B00008952F923F924F925F926F927F928F92EB
:1021C0009F92AF92BF92CF92DF92EF92FF920F93C6
:1021D0001F93DF93CF9300D000D000D0CDB7DEB7F0
:1021E0000A83282E3324042F10E002191309662EC7
:1021F0007724822F90E0861997099E838D8310168D
:10220000110624F441E0442E512C0CC00115110597
:1022100019F44424552406C0109501951F4F4424F9
:102220004A94542CED81FE811E161F0624F431E0E1
:10223000832E912C11C02D813E81232B19F48824EB
:1022400099240AC08D819E81909581959F4F9E8390
:102250008D8388248A94982CCD80DE80C016D10688
:102260000CF468011982AA24BB24EE24FF24F60191
:102270003196FC83EB831CC0822D662D4A810E941F
:10228000C010A00EB11E2D813E81E20EF31ECA14B5
:10229000DB0424F4AC18BD08240C351CCE14DF0478
:1022A00024F4EC18FD08680C791C39813F5F3983F0
:1022B000E9818E2F90E02B813C8128173907E4F6C5
:1022C00026960FB6F894DEBF0FBECDBFCF91DF913B
:1022D0001F910F91FF90EF90DF90CF90BF90AF9044
:1022E0009F908F907F906F905F904F903F902F9036
:1022F00008953F924F925F926F927F928F929F923A
:10230000AF92BF92CF92DF92EF92FF920F931F9303
:10231000DF93CF9300D000D000D0CDB7DEB7382EFA
:10232000862E922E842F90E09E838D83889F20019D
:10233000899F500C989F500C11240894411C511CEB
:102340003C0176946794680E791E76946794AA246B
:10235000BB24E32DF0E0FA83E983482D50E05C8351
:102360004B83AA9CC001AB9C900DBA9C900D11248C
:102370009201281B390B05C08D819E8101979E8398
:102380008D83ED81FE81EE9FC001EF9F900DFE9F3A
:10239000900D11242817390778F3FA2CDA2CD30C76
:1023A0000B811C810E1B1F0B8D2D602F492D0E9450
:1023B000C010E32CEA188E2D602F492D0E94C0100A
:1023C0000B811C814D815E81040F151F8E2D602FA6
:1023D000492D0E94C0108D2D602F492D0E94C010E4
:1023E000C980DA808D819E81C80ED91EE82CEA183A
:1023F0008C2D6E2D492D0E94C01009811A81ED810E
:10240000FE810E1B1F0B802F6E2D492D0E94C010C8
:10241000F80C802F6F2D492D0E94C0108C2D6F2D30
:10242000492D0E94C0100894A11CB11C6A147B04A1
:1024300008F097CF26960FB6F894DEBF0FBECDBF3B
:10244000CF91DF911F910F91FF90EF90DF90CF9090
:10245000BF90AF909F908F907F906F905F904F90C4
:102460003F900895FB01873009F447C0883070F42D
:10247000833051F1843028F48130F1F08230D1F48E
:102480001FC0853049F1863070F522C08A3009F4CA
:1024900052C08B3030F4883009F439C0893051F49F
:1024A00040C08C3009F457C08C3008F44DC08D30DA
:1024B00009F456C080E00895EC5AFF4E849134C070
:1024C000EC5AFF4E84913AC0EC5AFF4E84913FC0C3
:1024D000EC5AFF4E849142C0EB5AFF4E8491881F04
:1024E0008827881F0895EB5AFF4E849190E076E08C
:1024F000969587957A95E1F731C0EB5AFF4E849116
:1025000090E065E0969587956A95E1F727C0EB5ACC
:10251000FF4E849190E054E0969587955A95E1F7A7
:102520001DC0EB5AFF4E849190E043E0969587954D
:102530004A95E1F713C0EB5AFF4E849190E09695CF
:102540008795969587950AC0EB5AFF4E849190E047
:102550009695879503C0EB5AFF4E8491817008953C
:10256000EA5AFF4E8491881F8827881F08954F924A
:102570005F926F927F928F929F92AF92BF92CF9213
:10258000DF92EF92FF920F931F93DF93CF930F92FF
:10259000CDB7DEB7FC01F62E390164E670E00E948B
:1025A000EA15862E862F8351823010F080E0CEC04F
:1025B000CF0164E670E00E94EA15982E24E18216AD
:1025C00039F483E0989E80011124075D1E4F06C0F8
:1025D00083E0989E8001112403501040F801EA5ACC
:1025E000FF4EE4918E2F8F71E076E03219F4D82EF1
:1025F000DA9403C05EE1D52ED80E50E0EF2DF0E066
:1026000039E03F1568F02A01089441085108EE5D51
:10261000FC4F8081480E511C82E08F15B0F40CC035
:102620002A01089441085108EE0FFF1FE85EFC4F95
:1026300080819181480E591E892D90E083709070A1
:10264000892B19F40894411C511CED2CFF244E14C5
:102650005F0490F181E0B8010E943212882311F0EA
:102660008EE101C08DE14E185F08F801EC5AFF4E73
:10267000D490D2942FE0D22291E0EE24E394FF2470
:1026800013C0E3949D1511F4F09409F49F5F8E2D0F
:10269000B80199830E9432129981882311F08EE14A
:1026A00001C08DE14A185B08A82EBB244A145B04C4
:1026B00040F7442D4F5F42C0992029F493E1892EC1
:1026C00083E6982E01C09A94BDEFEB2EBFEFFB2E50
:1026D000E00EF11EF701EC5AFF4EB490B294AFE059
:1026E000BA2219F0FDE0CF2E02C0ECE0CE2E8C2DE8
:1026F000B7010E943212882311F01EE101C01DE1D2
:102700000D2D04199CE0DD2414C0CA94DD2009F4C9
:1027100091509B1509F4D0948C2DB70199830E9498
:1027200032129981882311F08EE101C08DE1011BE5
:10273000182F101750F3412F4F5F401BF301819268
:10274000D30111969C929183428381E00F90CF91A7
:10275000DF911F910F91FF90EF90DF90CF90BF908E
:10276000AF909F908F907F906F905F904F90089563
:10277000FF920F931F93CF93DF93FC01F62EE90195
:1027800064E670E00E94EA15282FCF0164E670E04D
:102790000E94EA15643108F02C59022F10E02695AA
:1027A0002695C801820F911D67E070E00E94EA152E
:1027B0009C01EF2DF0E0EA5EFC4F808150E0480F75
:1027C000511D420F531F03701070012B29F482E03A
:1027D0008F1510F041505040CA0167E070E00E9430
:1027E000EA158883DF91CF911F910F91FF90089593
:1027F000EF92FF920F931F93DF93CF9300D000D0FF
:10280000CDB7DEB77C018901D901E2E5F1E0819124
:102810008D9381E0E136F807D1F7C7019E012F5F64
:102820003F4F0E94B712882309F48AC0898194E639
:10283000899F900111248A81280F311DA7E0203C37
:102840003A0748F0C901805C97406CE370E00E9451
:10285000EA15282F0AC080EC97E0821B930B6CE3EB
:1028600070E00E94EA152CE3281B822F6AE00E9488
:10287000D11533E0939FF0011124EB55FD4F80817A
:10288000D8018C93818111968C931197822F6CE0E3
:102890000E94D115939FF0011124ED53FD4F8081CB
:1028A00012968C931297818113968C9313978B8138
:1028B000A8014A5F5F4F813029F485ED16968C930D
:1028C0008DEF0AC0839FF0011124EC51FD4F8081F0
:1028D000D80116968C938181FA0181838C819801AD
:1028E000265F3F4F8B3078F06AE00E94D11593E06D
:1028F000899FF0011124E55FFC4F8081D8011A9671
:102900008C93818105C083EBD8011A968C9385EF57
:10291000F90181838C8190E001976AE070E00E9468
:10292000FE15FC01EE0FFF1FE80FF91FE951FD4FE7
:102930008081D8011C968C931C9781811D968C9365
:102940000F900F900F900F90CF91DF911F910F91EB
:10295000FF90EF900895CF93DF93EC01742FA901BE
:10296000805D9740C39708F03DC0862F81508C3022
:10297000C8F5660F62507F3008F06F5FA62FB0E099
:10298000862F869586958695FE01EE0FFF1FEC0F2C
:10299000FD1FEC50FE4FE80FF11DE057F74120817D
:1029A00030E0CD018770907002C0220F331F8A95EE
:1029B000E2F7A357BD4FAC91FA01A08327FF0EC0E9
:1029C000613031F06B3021F0623111F0653141F44A
:1029D000CC5FD74028F4AF5FFA01A08381E003C049
:1029E000A150FACF80E0DF91CF910895BF92CF92AE
:1029F000DF92EF92FF920F931F93DF93CF930F928B
:102A0000CDB7DEB77C01B62ED42E89019E012F5F93
:102A10003F4F0E94AB14882309F4B8C02B2D30E03F
:102A200021503040922F990F8EE08D1508F49F5F52
:102A30008981D816E1F485E0989FF0011124E059CE
:102A4000FE4FD80120E030E081918D932F5F3F4F02
:102A500025303105C9F7F80184E090E294838F5F57
:102A600031968E30D9F7D8011F961C928EC0D801AE
:102A7000E1E6F1E081918D9381E0E037F807D1F74D
:102A80006981A8014C5F5F4FD616C8F4E5E09E9FB0
:102A90009001112420593E4FD9018D91F801828374
:102AA000F9018181F801838311968C9111978483B8
:102AB00012968C91DA0111968C93262F2BC0892FB8
:102AC00090E00196FC01EE0FFF1FEE0FFF1FE80FD5
:102AD000F91FE059FE4FDF018D91BD01D80112961B
:102AE0008C931297818113968C931397FB018181AC
:102AF00014968C938281DA0111968C93BEE0BD15F9
:102B000058F0C7016B2D4FE09E012F5F3F4F0E9491
:102B1000AB1429812D192AC028513E4FF901C080DC
:102B2000F2E0BF16A1F4C70183709070892B79F48D
:102B3000C70164E670E00E94EA15892B39F4C701E9
:102B400060E971E00E94EA15892B09F4C3946B2DAA
:102B50006F5F6D3009F461E0C70141E09E012F5FB6
:102B60003F4F0E94AB1429812D192C0D822F6AE052
:102B70000E94D115805DD8011A968C931A97822FE6
:102B80000E94D115905D1B969C9381E00F90CF9190
:102B9000DF911F910F91FF90EF90DF90CF90BF904A
:102BA0000895991B79E004C0991F961708F0961BA9
:102BB000881F7A95C9F78095089587FB082E062609
:102BC00087FD819567FD6195ECDF0EF4919507FC1B
:102BD00081950895AA1BBB1B51E107C0AA1FBB1F0B
:102BE000A617B70710F0A61BB70B881F991F5A9599
:102BF000A9F780959095BC01CD01089597FB092E0A
:102C000007260AD077FD04D0E5DF06D000201AF4AD
:102C1000709561957F4F0895F6F7909581959F4F38
:062C20000895F894FFCFB7
:102C260032303130C4EA3033D4C23034C8D520D043
:102C3600C7C6DAC1F90031393939C4EA3131D4C2EB
:102C46003235C8D5003132CAB13030B7D63030C38C
:102C5600EB00CAB1BCE4C9E8D6C33A20C3EB000115
:102C6600010CC1A2D3EACBAEBEAAD5DDB4BAB7D6A3
:102C7600C7E5C3F7B9C8CFC4D0A1C2FAC3A2D6D696
:102C8600D6C1B4F3C7EFB4A6CAEEB0D7C2B6BAAED1
:102C9600CBAABDB5B6ACD1A9BCD7D2D2B1FBB6A131
:102CA600CEECBCBAB8FDD0C1C8C9B9EFD7D3B3F31F
:102CB600D2FAC3AEB3BDCBC8CEE7CEB4C9EAD3CF42
:102CC600D0E7BAA5D2BBB6FEC8FDCBC4CEE5C1F9E6
:102CD600C6DFB0CBBEC5CAAEB6ACC0B0B3F5CAAEE1
:102CE600D8A5C8FDC4EAD4C2C8D5C0EBBBB9D3D0F9
:102CF600CCECD0C7C6DAD5FDCAB1C3EBBCE4C9E893
:102D0600D6C301020408102040800706050403020A
:102D16000100BCD7D7D3C4EAD5FDD4C2B3F5D2BB24
:102D260000C0EBD0A1BAAEBBB9D3D03F3FCCEC00CC
:102D3600D0A1BAAE00B4F3BAAE00C1A2B4BA00D301
:102D4600EACBAE00BEAAD5DD00B4BAB7D600C7E559
:102D5600C3F700B9C8D3EA00C1A2CFC400CFC4C22A
:102D6600FA00C3A2D6D600CFC4D6C100D0A1CAEEFF
:102D760000B4F3CAEE00C1A2C7EF00B4A6CAEE00C3
:102D8600B0D7C2B600C7EFB7D600BAAEC2B600CB50
:102D9600AABDB500C1A2B6AC00D0A1D1A900B4F3BA
:102DA600D1A900B6ACD6C1001F1C1F1E1F1E1F1FB7
:102DB6001E1F1E1F4EA6999CA29880001800102464
:102DC6004EA6999CA2988082180010244EA6D99EE1
:102DD600A2988082180010044EE6D99EA6A880828A
:102DE600180010000FE6D9BEA69888821880000049
:102DF6000FEFD9BEA6998C82988000000FEFDBBE3C
:102E0600A6999CA2988000180FEFDBBEA6999CA2FB
:102E1600988000180FEFDBBEA2998CA098808218CC
:102E26000BEFDBBEA6998CA2988082180FEFDBBE53
:102E3600E6D99EA2988082180FEFFBBFE6D99EA620
:102E4600988082180FFFFFFCEFD9BEA6180614045F
:102E5600130615051406150615071708170817088B
:102E66001808160716BCD700D2D200B1FB00B6A1CF
:102E760000CEEC00BCBA00B8FD00D0C100C8C90045
:102E8600B9EF00D7D300B3F300D2FA00C3AE00B354
:102E9600BD00CBC800CEE700CEB400C9EA00D3CF50
:102EA60000D0E700BAA500D2BB00B6FE00C8FD0000
:102EB600CBC400CEE500C1F900C6DF00B0CB00BE32
:102EC600C500CAAE00B6AC00C0B000B3F500CAAECD
:102ED60000D8A500C8FD000003030601040602058C
:102EE600000305001F3B5A7897B5D4F31101300152
:022EF6004E018B
:00000001FF
