:100000000C942A000C9447000C9447000C94470071
:100010000C9447000C9447000C9447000C94470044
:100020000C9447000C9447000C9447000C94470034
:100030000C9447000C9447000C9447000C94470024
:100040000C9447000C9447000C9447000C94470014
:100050000C94470011241FBECFE5D4E0DEBFCDBF16
:1000600010E0A0E6B0E0E2ECF7E002C005900D92EF
:10007000A03AB107D9F711E0A0EAB0E001C01D92A3
:10008000A830B107E1F70E94C3030C94DF030C947E
:100090000000382F67956627679582B38F77862B88
:1000A00082BB949820E0A898932F991F9927991FB5
:1000B000990F85B38D7F892B85BB330FA89A2F5F4E
:1000C000283089F7949A08959598959A97989498D6
:1000D00032EA20E0A898932F991F9927991F990F2A
:1000E00085B38D7F892B85BB330FA89A2F5F28306E
:1000F00089F7949A9798949831EA20E0A898932FDA
:10010000991F9927991F990F85B38D7F892B85BBDF
:10011000330FA89A2F5F283089F7949A979894986C
:1001200030EC20E0A898932F991F9927991F990FD9
:1001300085B38D7F892B85BB330FA89A2F5F28301D
:1001400089F7949A9798949836E220E0A898932F8C
:10015000991F9927991F990F85B38D7F892B85BB8F
:10016000330FA89A2F5F283089F7949A979894981C
:1001700031E820E0A898932F991F9927991F990F8C
:1001800085B38D7F892B85BB330FA89A2F5F2830CD
:1001900089F7949A9798949830E120E0A898932F43
:1001A000991F9927991F990F85B38D7F892B85BB3F
:1001B000330FA89A2F5F283089F7949A97989498CC
:1001C0003FE220E0A898932F991F9927991F990F34
:1001D00085B38D7F892B85BB330FA89A2F5F28307D
:1001E00089F7949A979894983FEA20E0A898932FDB
:1001F000991F9927991F990F85B38D7F892B85BBEF
:10020000330FA89A2F5F283089F7949A979894987B
:1002100030E620E0A898932F991F9927991F990FEE
:1002200085B38D7F892B85BB330FA89A2F5F28302C
:1002300089F7949A0895E82F70EB97989498372F40
:1002400020E0A898932F991F9927991F990F85B39C
:100250008D7F892B85BB330FA89A2F5F283089F7B4
:10026000949A9798949830E120E0A898932F991F3A
:100270009927991F990F85B38D7F892B85BB330FE4
:10028000A89A2F5F283089F7949A9798949834E029
:1002900020E0A898932F991F9927991F990F85B34C
:1002A0008D7F892B85BB330FA89A2F5F283089F764
:1002B000949A40E050E0979A94983E2F20E0A898B6
:1002C000932F991F9927991F990F85B38D7F892B9C
:1002D00085BB330FA89A2F5F283089F7949A979A95
:1002E0009498362F20E0A898932F991F9927991F4B
:1002F000990F85B38D7F892B85BB330FA89A2F5F0C
:10030000283089F7949A4F5F5F4F4034510599F632
:100310007F5F783B09F091CF0895A42FA295AF702D
:10032000A061782FE82FF0E0E60FF11D4B704460DC
:100330004DC0572F50559798949830E0A898952F16
:10034000991F9927991F990F85B38D7F892B85BB9D
:10035000550FA89A3F5F383089F7949A97989498E8
:100360005A2F30E0A898952F991F9927991F990F18
:1003700085B38D7F892B85BB550FA89A3F5F383099
:1003800089F7949A542F9798949830E0A898952FCD
:10039000991F9927991F990F85B38D7F892B85BB4D
:1003A000550FA89A3F5F383089F7949A90E00BC0B8
:1003B000979A949880E0A898A998A89A8F5F883017
:1003C000D1F7949A9F5F921798F37F5F872F90E001
:1003D0008E179F070CF4ADCF08950F931F93CF9303
:1003E000DF93DC01122F12951F701061562F70E001
:1003F000640F711D2B702460C02FD0E05BC0452FAF
:1004000040559798949830E0A898942F991F992771
:10041000991F990F85B38D7F892B85BB440FA89AAF
:100420003F5F383089F7949A97989498412F30E03D
:10043000A898942F991F9927991F990F85B38D7F9D
:10044000892B85BB440FA89A3F5F383089F7949A6F
:10045000422F9798949830E0A898942F991F992745
:10046000991F990F85B38D7F892B85BB440FA89A5F
:100470003F5F383089F7949AFD0115C04081979A03
:10048000949830E0A898942F991F9927991F990F55
:1004900085B38D7F892B85BB440FA89A3F5F383089
:1004A00089F73196949A8E2F8A1B801738F3AC0FF8
:1004B000BD1F5F5F852F90E0861797070CF49FCFD5
:1004C000DF91CF911F910F910895DF93CF9300D0CB
:1004D00000D0CDB7DEB7FC019798949830E120E0CA
:1004E000A898932F991F9927991F990F85B38D7FEE
:1004F000892B85BB330FA89A2F5F283089F7949AF0
:100500009798949834E020E0A898932F991F992702
:10051000991F990F85B38D7F892B85BB330FA89ABF
:100520002F5F283089F7949A198267E041E050E004
:100530008BC0808190E09C012034310510F02FE3C6
:1005400030E0C90133E0969587953A95E1F7762F2B
:10055000781B7B83822F809587708C831A826DC075
:100560002A8120559798949830E0A898922F991F47
:100570009927991F990F85B38D7F892B85BB220FF2
:10058000A89A3F5F383089F7949A298122952F7075
:1005900020619798949830E0A898922F991F9927F6
:1005A000991F990F85B38D7F892B85BB220FA89A40
:1005B0003F5F383089F7949A29812F7097989498E3
:1005C00030E0A898922F991F9927991F990F85B30A
:1005D0008D7F892B85BB220FA89A3F5F383089F722
:1005E000949A9A818B81981751F0979A949880E009
:1005F000A898A998A89A8F5F8830D1F71AC08C81E3
:100600009A0102C0220F331F8A95E2F7322F979A80
:10061000949820E0A898932F991F9927991F990FD4
:1006200085B38D7F892B85BB330FA89A2F5F283028
:1006300089F7949A8A818F5F8A838A81883008F447
:100640008FCF89818F5F8983898187FF72CF979848
:10065000949830E420E0A898932F991F9927991F28
:10066000990F85B38D7F892B85BB330FA89A2F5F98
:10067000283089F7949A0F900F900F900F90CF9198
:10068000DF910895FF920F931F93CF93DF93F02E86
:10069000EC0155E0CC0FDD1F5A95E1F7722F7295F2
:1006A0007F707061A62FB0E0A40FB11D2B70246085
:1006B00010E05DC0462F40559798949830E0A89878
:1006C000942F991F9927991F990F85B38D7F892B97
:1006D00085BB440FA89A3F5F383089F7949A979862
:1006E0009498472F30E0A898942F991F9927991F25
:1006F000990F85B38D7F892B85BB440FA89A3F5FE7
:10070000383089F7949A422F9798949830E0A898B7
:10071000942F991F9927991F990F85B38D7F892B46
:1007200085BB440FA89A3F5F383089F7949AFE0141
:10073000E05AFF4F50E016C04081979A949830E0FD
:10074000A898942F991F9927991F990F85B38D7F8A
:10075000892B85BB440FA89A3F5F383089F7949A5C
:100760005F5F31965F1540F3C00FD11F6F5F862F1B
:1007700090E08A179B070CF49DCFDF91CF911F91DA
:100780000F91FF9008950F938FEF84BB81BB0E9460
:10079000640080E068E040E020E80E948D0180E095
:1007A00090E064E042E028E100E10E94420381E041
:1007B00090E064E042E028E20E944203FFCFF89418
:0207C000FFCF69
:1007C2000831866000FE02F202FE00F80000FF001F
:1007D20004FC03008047300F1067000740807F0051
:1007E2004042DC08009090909090FF10121C100084
:1007F20000007F201020201F101001061820780012
:00000001FF
