:1000000019C033C032C031C030C02FC02EC02DC087
:100010002CC02BC02AC029C028C027C026C025C09C
:1000200024C023C022C021C020C01FC01EC01DC0CC
:100030001CC01BC011241FBECFEFD4E0DEBFCDBF5C
:1000400011E0A0E0B1E0EEEEF3E002C005900D9209
:10005000A234B107D9F711E0A2E4B1E001C01D92CA
:10006000A334B107E1F799D1C0C1CACF2B982A9A1E
:100070002D9A8BB92D9808952B982A982D9A8BB983
:100080002D9808952B982A9A2C9A8BB92C9808951C
:100090002B982A982C9A8BB92C9808952B982B98EA
:1000A0002A982D9A82EE8BB92D982B982A982C9A03
:1000B0008BB92C982B982A982D9A8EEA8BB92D986B
:1000C0002B982A982C9A8BB92C982B982A982D9A91
:1000D00084EA8BB92D982B982A982C9A8BB92C9856
:1000E0002B982A982D9A89EA8BB92D982B982A98C3
:1000F0002C9A8BB92C982B982A982D9A81EA8BB937
:100100002D982B982A982C9A8BB92C982B982A9852
:100110002D9A8EEE8BB92D982B982A982C9A8BB904
:100120002C982B982A982D9A1BB82D982B982A98A2
:100130002D9A80EC8BB92D982B982A982C9A1BB865
:100140002C982B982A982C9A8BB92C982B982A9813
:100150002D9A8FEA8BB92D982B982A982C9A8BB9C7
:100160002C980895686B2B982A982D9A6BB92D9826
:10017000886B2B982A982C9A8BB92C9808958F7796
:100180002B982A982D9A8BB92D986F772B982A98AF
:100190002C9A6BB92C9808952B982A9A2C9A8BB983
:1001A0002C9808952B982A9A2D9A8BB92D980895FA
:1001B00090E0892F886B2B982A982D9A8BB92D98CF
:1001C0002B982A982C9A8BB92C982B982A982D9A90
:1001D0001BB82D982B982A982C9A1BB82C9880E045
:1001E0002B982A9A2C9A1BB82C982B982A9A2D9ADD
:1001F0001BB82D988F5F8D3399F79F5F9430C9F6A8
:100200000895AF92BF92CF92DF92EF92FF920F9339
:100210001F93CF93DF938B01E5E0880F991FEA9539
:10022000E1F7EC01C20FD11DCF5FDE4F71E0E72E89
:1002300071E0F72EE80EF91E30E06AEBA62E5BEBBC
:10024000C52E98EBB92E89EBD82E99C00D33110528
:1002500030F0C8016DE370E0B4D031E001C0802F10
:100260008F774423E1F52B982A982D9ABBB82D98C7
:100270002B982A982C9ABBB82C982B982A982D9AB0
:100280008BB92D982B982A982C9A8BB92C98F7011A
:100290009081313031F42B982A9A2C9A9BB92C9862
:1002A00005C02B982A9A2D9A9BB92D982B982A989D
:1002B0002D9ADBB82D982B982A982C9ADBB82C987D
:1002C0002B982A982D9A8BB92D982B982A982C9A8E
:1002D0008BB92C98E881313009F045C03CC02B988F
:1002E0002A982D9AABB82D982B982A982C9AABB8AF
:1002F0002C982B982A982D9A8BB92D982B982A9860
:100300002C9A8BB92C98F7019081313031F42B98CD
:100310002A9A2C9A9BB92C9805C02B982A9A2D9A28
:100320009BB92D982B982A982D9ACBB82D982B985D
:100330002A982C9ACBB82C982B982A982D9A8BB95E
:100340002D982B982A982C9A8BB92C98E8813130CB
:1003500041F4F0E0E4912B982A9A2C9AEBB92C986E
:1003600007C0F0E0E4912B982A9A2D9AEBB92D98CA
:100370000F5F1F4F215021960894E11CF11C223081
:1003800008F064CFDF91CF911F910F91FF90EF9014
:10039000DF90CF90BF90AF9008958FEF84B98AB966
:1003A0007DDE06DF80E090E060E070E040E020E18C
:1003B00028DF81E090E060E170E040E020E121DFB3
:1003C000FFCFAA1BBB1B51E107C0AA1FBB1FA6176B
:1003D000B70710F0A61BB70B881F991F5A95A9F7EE
:0E03E00080959095BC01CD010895F894FFCF53
:1003EE00B10831866000FE02F202FE00F80000FF46
:1003FE000004FC03008047300F1067000740807F29
:10040E00004042DC08009090909090FF10121C105B
:10041E000000007F201020201F10100106182078E9
:02042E000000CC
:00000001FF
