:03000000020610E5
:0C061000787FE4F6D8FD7581790206576A
:10000300000023F81208120883F84208420813F884
:10001300100027FCE4A424A424A424A42FFE00009D
:10002300010000803FFE222022203FFC22202220CC
:1000330023E020002FF02410422041C08630380EE8
:1000430000001FF0101010101010101010101FF0EF
:100053001010101010101010101010101FF01010AE
:100063002200227C7F44224422443E7C22442244B8
:100073003E44227C2244FF440484228441148208A7
:10008300100010001FFC2080208040801FF810808B
:1000930010801080FFFE00800080008000800080C0
:1000A30000001FF81008100810081FF810081008A7
:1000B30010081FF810081008200820084028801096
:1000C30000001FF0101010101010101010101FF06F
:1000D3001010101010101010101010101FF010102E
:1000E300000800087C08440845FE440844087C08CE
:1000F30044884448444844087C08440800280010C5
:1001030000400440042008201010200840049FE20F
:1001130004200420042008200820102021404080CF
:1001230008201C20F02010A810A4FCA211223120CA
:100133003A245424542890081010102010C013009F
:1001430000000000000018002400420042004200AA
:10015300420042004200420024003C000000000034
:100163000000000000000800380018001800180004
:1001730018001800180018001800180000000000EC
:100183000000000000003800460042004200040066
:10019300040008001000200042007E000000000060
:1001A3000000000000003800440044000400040084
:1001B300180004000200420042003C00000000005E
:1001C30000000000000004000C00140014002400D0
:1001D30044004400FE00040004000C000000000082
:1001E3000000000000003E004000400040005C00B2
:1001F300660002000200420042003C0000000000D2
:100203000000000000001C002600400040005C00CD
:10021300620042004200420042003C000000000035
:100223000000000000007E004200040004000800FB
:100233000800100010001000100010000000000063
:100243000000000000003800460042004200240085
:10025300380044004200420042003C00000000001D
:100263000000000000003800440042004200420049
:1002730046003A0002000400440078000000000039
:1002830000000000000000001010101010101010EB
:1002930020200001020304050607000102030405F0
:1002A3000607000100000000000000000001020337
:0702B30004050607183C3C9E
:10083A00035F0A1428203622FF0043FF00630000EA
:10084A00000000000000000000000000000000009E
:10085A00FF00E3FF010300000000000000000000A9
:10086A000000000000000000FF0003FF00231862E0
:10087A00FF0043FF006300000000000000000000CA
:0B088A00000000000000000001210041
:040AEE007F967E0071
:100AF200D3EF9400EE94004007EF1F70F31E80F0D6
:010B020022D0
:100B1600C2B4D2B3D2B2AF90EF30E7037F01227FE7
:010B260000CE
:010B270022AB
:100A89007FFFC2B4D2B3D2B2EFD394007480948002
:100A9900400BAD90AE05ED30E7031F80EBEE30E77C
:060AA900037F01227F0023
:010AAF002224
:060A3500EA4480FFC2004C
:100A3B00AC07120A89C2B3A20092B47F0A7E0012DD
:100A4B000AF28C90D2B27F0A7E00120AF2C2B27FF7
:060A5B000A7E00020AF20F
:100944007F907E01120AF2D2B0120AEEC2007F3604
:10095400120A3B120AEEC2007F36120A3B120AEE5A
:10096400C2007F3E120A3B120AEEC2007F0C120A3A
:100974003B120AEEC2007F01120A3B7F967E000200
:020984000AF275
:100AD000D2B0C2007F30120A3BC2007F01120A3B33
:0E0AE000C2007F06120A3BC2007F0C020A3BD6
:0408EF008E1D8F1EAD
:1008F300C2007F30120A3BC2007F80120A3BE4FB36
:10090300EBC39404748094805036E4FAEAC39410E1
:10091300748094805027EB75F010A4FFEA7C002FBD
:10092300FFEC35F0FEE51E2FF582E51D3EF583E471
:100933009324FF92007F01120A3B0A80CF0B80C0F1
:010943002291
:0A09C6008F118D128B138A1489150E
:1009D000E4F516C3E5169410748094805025E5164E
:1009E0002511120A36E512120A36AB13AA14A915FC
:1009F00085168275830012057CFFD200120A3B0522
:030A00001680D08D
:010A030022D0
:0A0896008F0A8D0B8B0C8A0D890E62
:1008A000E4F510F50FC3E50F941074809480503E6A
:1008B000E50F250A120A36E50B120A36AB0C050EB7
:1008C000E50EAA0D7002050D14F9120563FFD200A2
:1008D000120A3BAB0C050EE50EAA0D7002050D14B5
:0E08E000F9120563FFD200120A3B050F80B724
:0108EE0022E7
:0B070E00E50925E02402FD7BFF7F10C1
:0A0719008F0A8D0B8B0C8A0D890EE0
:10072300E4F510F50FC3E50F9410748094805043E3
:10073300E50F250A120A36E50B4488FFC200120AA8
:100743003BAB0C050EE50EAA0D7002050D14F91254
:100753000563FFD200120A3BAB0C050EE50EAA0D92
:100763007002050D14F9120563FFD200120A3B054E
:030773000F80B242
:010776002260
:1007DB00E4FAEAC39420748094805023120A35C241
:1007EB00007F80120A3BE4FBEBC39410748094806F
:1007FB00500AD200E4FF120A3B0B80EC0A80D3E4D0
:10080B00FAEAC39420748094805023120A35C200F4
:10081B007F88120A3BE4FBEBC394107480948050E6
:0E082B000AD200E4FF120A3B0B80EC0A80D3D5
:01083900229C
:0E0B3900C2007F30120A3BC2007F01020A3B5D
:100B2800EFC4540FFEEF540FFDEE75F00AA42DFF2D
:010B3800229A
:100B0300EF75F00A84C454F0FEEF75F00A84E5F043
:030B13002EFF2290
:060A6100C2B7C2B5D2B716
:100A6700E4FEEEC39408748094805015EF30E004E0
:100A7700D2B68002C2B6D2B5EFC313FFC2B50E809D
:010A8700E18D
:010A8800224B
:100AB000D2B6E4FEEEC39408748094805011EFC364
:0F0AC00013FF30B603430780D2B5C2B50E80E5F1
:010ACF002204
:0B0B4700120A61AF05120A67C2B72254
:080B5200120A61120AB0C2B7D9
:010B5A002278
:060A04008B178A18891906
:100A0A007C8DECC3948174809480401EAF04120BD9
:100A1A0052120B28AB170519E519AA187002051806
:0A0A2A0014F9EF1205A91C1C80D876
:010A3400229F
:060986008B1A8A1B891C7C
:10098C00E4FD7F8E120B477C8CECC39480748094B6
:10099C00804020AB1A051CE51CAA1B7002051B1419
:1009AC00F9120563FF120B03AD07AF04120B471CC2
:0A09BC001C80D67D807F8E020B4761
:030B5B0002094448
:1004B300E4F509C3E5099412748094805026E50994
:1004C30075F003A42422F8860308E6FA08E6F9E5A2
:1004D3000990028393FFE50990029593FD12089614
:1004E300050980CFE4F509C3E50994087480948075
:1004F3005026E50975F003A42462F8860308E6FA9A
:1005030008E6F9E5099002A793FFE5099002AF9386
:10051300FD120719050980CFE4F509C3E509940322
:10052300748094805039E509652170167A01792326
:1005330012070EE50925E02403FD7BFF7A017923E9
:1005430080147A01790312070EE50925E02403FDDF
:0F0553007BFF7A0179037F10120719050980BC1D
:010562002276
:1002BA00E55875F00A8475F00A84E5F075F020A413
:1002CA002443F9740135F07528FFF529892AE55880
:1002DA0075F00A84E5F075F020A42443F974013519
:1002EA00F0752BFFF52C892DE55A75F00A8475F007
:1002FA000A84E5F075F020A42443F9740135F075F9
:10030A002EFFF52F8930E55A75F00A84E5F075F06D
:10031A0020A42443F9740135F07531FFF53289338D
:10032A00E55B75F00A8475F00A84E5F075F020A49F
:10033A002443F9740135F07534FFF5358936E55BE8
:10034A0075F00A84E5F075F020A42443F9740135A8
:10035A00F07537FFF5388939E55C75F00A8475F070
:10036A000A84E5F075F020A42443F9740135F07588
:10037A0040FFF5418942E55C75F00A84E5F075F0C5
:10038A0020A42443F9740135F07543FFF5448945E7
:10039A00E55D75F00A8475F00A84E5F075F020A42D
:1003AA002443F9740135F07546FFF5478948E55D40
:1003BA0075F00A84E5F075F020A42443F974013538
:1003CA00F07549FFF54A894BE55E75F00A8475F0C8
:1003DA000A84E5F075F020A42443F9740135F07518
:1003EA004CFFF54D894EE55E75F00A84E5F075F02F
:1003FA0020A42443F9740135F0754FFFF550895153
:10040A00E55F75F00A8475F00A84E5F075F020A4BA
:10041A002443F9740135F07568FFF569896AE55F67
:10042A0075F00A84E5F075F020A42443F9740135C7
:10043A00F0756BFFF56C896DE56075F00A8475F0EF
:10044A000A84E5F075F020A42443F9740135F075A7
:10045A006EFFF56F8970E56075F00A84E5F075F056
:10046A0020A42443F9740135F07571FFF57289737C
:10047A00E56175F00A8475F00A84E5F075F020A448
:10048A002443F9740135F07574FFF5758976E561D1
:10049A0075F00A84E5F075F020A42443F974013557
:0904AA00F07577FFF578897922DD
:10069C003080093081063082032083657F327E00F2
:1006AC00120AF2208015745F2521F8E62401FFE47C
:1006BC0033FEE5219002B793FD801C208126E521B5
:1006CC009002B793FDFF745F2521F8E62FFFE4330A
:1006DC00CF24FFCF34FFFE7C001205BB745F2521B5
:1006EC00F8A60522208206E521240280072083112A
:1006FC00E5212401FFE433FE7C007D031205BB8D54
:02070C002122A8
:10077700E4F508120B5B0508E508640A7002055EDC
:10078700E50875F00A8485F00812069C1202BAE59E
:100797005F75F03CA4256075F03CA42561FFE55D1D
:1007A70075F03CA4FEE55C25E025E02E255EFEC342
:1007B700EF9EFFFD7C00D3940074809480500EC39D
:1007C700ED94FB7480947F4004C2A08002D2A012F3
:0407D70004B380A245
:10061C00020777E493A3F8E493A34003F68001F276
:10062C0008DFF48029E493A3F85407240CC8C333DF
:10063C00C4540F4420C8834004F456800146F6DFAE
:10064C00E4800B010204081020408090083AE47EFC
:10065C00019360BCA3FF543F30E509541FFEE493A3
:10066C00A360010ECF54C025E060A840B8E493A36A
:10067C00FAE493A3F8E493A3C8C582C8CAC583CA95
:10068C00F0A3C8C582C8CAC583CADFE9DEE780BE4D
:010895000062
:10056300BB010689828A83E0225002E722BBFE0296
:09057300E32289828A83E49322C9
:10057C00BB010CE58229F582E5833AF583E0225034
:10058C0006E92582F8E622BBFE06E92582F8E2227E
:0D059C00E58229F582E5833AF583E4932298
:1005A900BB010689828A83F0225002F722BBFE0131
:0205B900F3222B
:1005BB00BC000BBE0029EF8DF084FFADF022E4CC24
:1005CB00F875F008EF2FFFEE33FEEC33FCEE9DECED
:1005DB00984005FCEE9DFE0FD5F0E9E4CEFD22ED33
:1005EB00F8F5F0EE8420D21CFEADF075F008EF2F7D
:1005FB00FFED33FD4007985006D5F0F222C398FD6E
:05060B000FD5F0EA220A
:00000001FF
