:10024200C0F9A4B0999282F880908883C6A1868E64
:0A0252000102040810204080FF00A4
:10027100100800010102030304040506060708082B
:02028100090969
:10008F0012014FEEC4F854F0C868FEEFC4540F4885
:10009F00FF7C007D641200FA7D011201AC12014F4A
:1000AF00EEC4F854F0C868FEEFC4540F48FF7C004C
:1000BF007D0A1200FA7D021201AC12014FEEC4F854
:1000CF0054F0C868FEEFC4540F48FF7C007D0A123D
:1000DF0000FAAF057D031201AC12014FEF540F244C
:0B00EF0008F8E6FF7D041201AC8095CC
:10025C00E4FEEF3392A0C2A1D2A1C2A1EF25E0FF30
:04026C000EBE08EECC
:01027000226B
:1001FE00E4D2807F0AFE120284C2807FF47E011256
:10020E000284D2807F9A7E00120284A280E4337F21
:06021E00D47E0002028400
:10018100E4F519F51A751908C280E51AC313F51AB1
:10019100D280308003431A807F387E00120284159A
:0A01A10019E519D3940050E0AF1ADD
:0101AB002231
:0201D6008F197F
:1001D800E4F51A751A08C280E5191392807F427EE9
:1001E80000120284D280E519C313F519151AE51A0D
:0501F800D3940050E16A
:0101FD0022DF
:10014F00E4F518FFFDFC1201FE7FCC1201D67F44AF
:10015F001201D61201FE7FCC1201D67FBE1201D63C
:10016F001201818F18120181AD07EDFCE518AE0465
:01017F00FF80
:01018000225C
:1001AC00AC07ED90025193FFBD030C12025CEC9076
:1001BC00024293547F800812025CEC90024293FF3F
:0A01CC0012025CC2A2D2A2C2A2225B
:10028400D3EF9400EE9400400800EF1F70F21E803C
:02029400EF2257
:10022400D3EF9400EE940040147DDA7C05ED1D704C
:0D023400011CED4C70F7EF1F70E61E80E31B
:01024100229A
:03000000020003F8
:0C000300787FE4F6D8FD75811A02004AEF
:1000FA00BC000BBE0029EF8DF084FFADF022E4CCEA
:10010A00F875F008EF2FFFEE33FEEC33FCEE9DECB2
:10011A00984005FCEE9DFE0FD5F0E9E4CEFD22EDF8
:10012A00F8F5F0EE8420D21CFEADF075F008EF2F42
:10013A00FFED33FD4007985006D5F0F222C398FD33
:05014A000FD5F0EA22D0
:10000F0002008FE493A3F8E493A34003F68001F278
:10001F0008DFF48029E493A3F85407240CC8C333F2
:10002F00C4540F4420C8834004F456800146F6DFC1
:10003F00E4800B0102040810204080900271E47EDE
:10004F00019360BCA3FF543F30E509541FFEE493B6
:10005F00A360010ECF54C025E060A840B8E493A37D
:10006F00FAE493A3F8E493A3C8C582C8CAC583CAA8
:10007F00F0A3C8C582C8CAC583CADFE9DEE780BE60
:01028300007A
:00000001FF
