:03000000020016E5
:0C001600787FE4F6D8FD75810D02005DD6
:09021900010A00010800010900BE
:1001810012012B85800D430D03AF0D7E00EF64013D
:100191007005750801800CEF64024E7006F508D2F7
:1001A10090D291A2809282A2819283E50824FF924B
:0601B10097850AA080CD35
:10012B00C290C291E4F50BF50C1201B7050CE50C6E
:10013B007002050BC39405E50B6480948040EAD2F2
:10014B0090D291E4F50BF50C1201B7050CE50C7090
:10015B0002050BC39405E50B6480948040EA758916
:10016B0001758C3C758AB0D28CD2A9D2A8D288D218
:06017B00AAD28AD2AF22D5
:0F020A00E4FFFE0FBF00010EBE27F8BF10F52264
:1001B700C0E0C0D075E004C0E075E0F9C0E075E0CC
:1001C700F8D5E0FDD0E0D5E0F3D0E0D5E0E9D0D038
:0301D700D0E02253
:030003000201DA1D
:1001DA00C0E0C0F0C0D0050AE50A75F0058485F0D4
:0801EA000AD0D0D0F0D0E032C1
:03000B000200A24E
:1000A200C0E0C0F0C083C082C0D075D000C000C024
:1000B20001C002C003C004C005C006C007E5086055
:1000C2000C758C3C758AB0D290D2918041E509D3EF
:1000D200950A4032750900AF0A7E00EF7002801A5D
:1000E200EF64014E7004B290801EEF64024E700401
:1000F200B2918014EF64054E7006C290C2918008DE
:10010200B290B29180020509758C3C758AB0D00715
:10011200D006D005D004D003D002D001D000D0D078
:09012200D082D083D0F0D0E0328D
:030013000201F2F5
:1001F200C0E0C0F0C0D0150AE50A75F0058485F0AC
:080202000AD0D0D0F0D0E032A8
:10002200020181E493A3F8E493A34003F68001F272
:1000320008DFF48029E493A3F85407240CC8C333DF
:10004200C4540F4420C8834004F456800146F6DFAE
:10005200E4800B0102040810204080900219E47E23
:10006200019360BCA3FF543F30E509541FFEE493A3
:10007200A360010ECF54C025E060A840B8E493A36A
:10008200FAE493A3F8E493A3C8C582C8CAC583CA95
:10009200F0A3C8C582C8CAC583CADFE9DEE780BE4D
:0102220000DB
:00000001FF
