:0300000002079F55
:0C079F00787FE4F6D8FD7581180207E6AB
:10000300404020E20400FC04547C525202FE0000F3
:100013000000000F24120F0006050503103F000027
:10002300000068A8FF54B40090AE48B888000000F0
:10003300000241407942423E2A2A20202001010049
:1000430000002010CC4B4848F82424240000000072
:1000530000020202030202027F0101010101010009
:100063000020A860FE10589440704CE0202000004F
:100073000445442C131A27100A040B1030202000C7
:100083000000000000FE92929101FF0000000000BA
:10009300004020180700000010207F00000000002F
:1000A30000000000F88888444404FC0000000000BD
:1000B300000000003F10100808081F0000000000A7
:1000C300000000FE425252BEA92901FF00000000B9
:1000D30040300C03000F05020310207F00000000D6
:1000E3000000F09088F84040404040FF202000008E
:1000F30000001F08080F00010610207F0000000009
:10010300008040201806008186881060C08080002F
:100113004140201009072140300F0000000000007B
:10012300004848FCA42220C03000FF00902040007B
:100133000402017F00412120100807020100000092
:10014300FFE7DBDBE71FEFF7F7F7F7EFC7FFFFFF8C
:10015300FFFFFFFFFFF0EFDFDFDFDFEFF7FFFFFF63
:10016300FF7F7F7F7F7F7F7F7FBFBFBFBF3F7FFFDC
:10017300FFFFFFFFFFFFFFFFFFFFFFFFFFFFFFFF8C
:10018300FFFFFFFFEFEFEFE7F7F7F7F7FFFFFFFFE4
:10019300F7F7F7F7F7F7FBFBFBFBFBFBF9F9FBFFC4
:1001A300FFFFFFFFEFEFEF777777F7FFFFFFFFFF2C
:1001B300FFEFEFEFEEEEEEF7F7F7F7F7F7F7FFFFE7
:1001C300FF8F6FEFEF0FEFEF0777777707FFFFFFF4
:1001D300FFFFF8FBFAFBFBFBFBFBFBF7F8FFFFFF63
:1001E300FFFFFF7F777787BBBBBB3BFFFFFFFFFFB4
:1001F300EFEFEFEFE7F0F7F7F7F0F7F7F7F7FFFFBA
:10020300FFBFBFBFBFBFBBB7DFDFDFDFDFDFFFFF87
:10021300FFEFEFF7FBFDFFFFFEFDFBE7FFFFFFFF38
:10022300FFFFFFFF077777BBBBFB03FFFFFFFFFF6B
:10023300FFFFFFFFF0F7FBFBFBF7F0FFFFFFFFFF05
:10024300FFFFFFFF71CDD515556E6EF0FFFFFFFF6A
:10025300FFDBDDDEDEDADAC0EDEDEFEFEFEFFFFF20
:10026300FFFFF7F70157FB00FBFF07DBFB03FFFF74
:10027300FDDDEDF5F8FDF9B6DEE7F8FEEFC0FFFFB3
:10028300FFDF6F775B59ABABAD3DFDFFFFFFFFFFBB
:10029300FFFFFFFFFFFFFFFFFFF0EFDFDFDFC3FF26
:1002A300DFBFFBF7FFF3CBABB5D54D71FFFFFFFF0F
:1002B300FFE7F9EEEFE0EEE0F6F0F7F0F7F7FFFF18
:1002C300109453321E325210007E4242427E00008E
:1002D300000000FF49494949494949FF000000001E
:1002E30008CC4A49484ACC18007F88888482E000B9
:1002F30000FF121252927F00007E88888482E00001
:100303000000F888888888FF88888888F8000000BB
:1003130000001F080808087F888888889F80F000ED
:1003230080828282828282E2A2928A868280800096
:10033300000000000040807F00000000000000007B
:1003430000002424242424FC22222223220000004F
:10035300020202020242827F02020202020202003F
:1003630000042424242424FF24242424240400001B
:1003730021211109FD83412305091129254141004B
:1003830000FC848484FC001010101010FF10100077
:10039300003F1010103F0000010640807F00000066
:1003A30000F8010600F0121212F2020202FE00002F
:1003B30000FF0000001F1111111F0040807F00008B
:1003C300101010FF109000FE9292929292FE000085
:1003D3000444827F0180423A4282FE9292928200DA
:1003E300F212FE12FE12F20000BE2AEA2A3E0000BA
:1003F300FF4A49484949FF004249497F494940006A
:100403000000007F494949494949497F00000000EC
:100413008141211D214181FF898989898981810048
:1004230000028282422212FA062222424282000003
:10043300010100FC44444445444444FC00000100E1
:10044300404042CC00808888FF8888FF88888000ED
:100453000040201F2040504C4340405F404040003C
:10046300000000000001E21CE000000000000000AA
:10047300804020100C03000000030C3040808000FB
:10048300404042CC0040A09E8282829EA020200059
:100493000000003F908840432C1028464180800094
:1004A300001715D55557557D555755D515170000C8
:1004B3004040407F555555555555557F4040400068
:1004C30000083000FF20202020FF2020222C2000C5
:1004D30004040201FF8040300E0106182040800012
:1004E300000484844424548F14244484840400002A
:1004F300413900003C4040424C4040700409310007
:100503000484E45C44C42010E82724E4342CE00091
:1005130002017F10103F80601F09093F49897F0056
:10052300404042CC0000000000FF0000000000003B
:100533000000003F90482018070007182040800063
:100543000202FE929292FE0206FC040404FC0000E6
:1005530008180F080804FF04844027182740800068
:100563001060020CC000E22C203F2028E6000000AF
:1005730004047C030000FF09090949897F00000086
:10058300FF1FEFF7F7EF1FFFFFF0EFDFDFEFF0FFE6
:10059300FFEFEF07FFFFFFFFFFDFDFC0DFDFFFFF3F
:1005A300FF8FF7F7F7778FFFFFCFD7DBDDDECFFFC7
:1005B300FFCFF77777B7CFFFFFE7DFDFDFEEF1FF9F
:1005C300FFFF3FDFEF07FFFFFFF8FBDBDBC0DBFFD6
:1005D300FF07F77777F7F7FFFFE6DEDFDFEEF1FFE1
:1005E300FF1FEF7777E7FFFFFFF0EEDFDFEEF1FFAF
:1005F300FFC7F7F737C7F7FFFFFFFFC0FFFFFFFF97
:10060300FF8F77F7F7778FFFFFE3DDDEDEDDE3FFB5
:10061300FF1FEFF7F7EF1FFFFFFFCEDDDDEEF0FF6C
:10062300FFFFFFFFFFFFFFFFFFFFFFFFFFFFFFFFD7
:10063300FFFFFFFFFFFFFFFFFFFEFEFEFEFEFEFECE
:10064300FFFFFF3F3FFFFFFFFFFFFFCFCFFFFFFF97
:1006530000001010F8000000000020203F202000C0
:10066300007008080808F000003028242221300018
:1006730000300808088870000018202121221C007F
:100683000000804030F8000000060524243F2424A5
:1006930000F88888880808000019202020110E001F
:090AFC000712005812160207143B
:100A3600C2A28D807F027E00120A47D2A47F027E68
:010A460000AF
:100A4700D3EF9400EE94004007EF1F70F31E80F081
:010A5700227C
:100A7A00C2A3D2A2E4F580D2A47F02FE120A47AF33
:0F0A8A0080C2A4530780EF7003D38001C350E5EF
:010A9900223A
:0D0AE200AD07120A7AC2A3120A36C2A4227E
:0D0AEF00AD07120A7AD2A3120A36C2A42261
:100ABA00120A7AD2A3D2A2C2A4120A41AD80120AA1
:050ACA0043C2A4AF05CA
:010ACF002204
:100A5800EF14600F14601114601324037013C2A004
:100A6800C2A122C2A0D2A122D2A0C2A122D2A0D2C7
:020A7800A122B9
:1009DB00120A58E4FCECC39408748094805025EC04
:1009EB0024B8FF120AE2E4FBEBC3944074809480BA
:1009FB00500FEB2440FF120AE2E4FF120AEF0B80C8
:040A0B00E70C80D1A3
:010A0F0022C4
:100A1000AD07120A7AAF05120A581209DB7F3E129F
:100A20000AE27FB8120AE27FC0120AE27F40120A8D
:060A3000E27F3F020AE232
:04082B008D098B0A9E
:10082F00120A58E4F50FE50FC3950E506DE4F5105D
:10083F00C3E510940274809480505BE50924B825B9
:10084F0010FF120AE2E50A2440FFE50FC454F02F0F
:10085F00FF120AE2E4F511C3E5119410748094803D
:10086F005030E50F75F020A4AB0B250DF9E50C35D5
:10087F00F0FAE51075F010A47C002511FFEC35F0AF
:10088F00FEE92FF9EA3EFA120995FF120AEF051158
:0A089F0080C50510809A050F808CBB
:0108A900222C
:04092000E4FD7F0271
:040924008D098B0AA4
:10092800E4FCF50FF510120A58E4F510E510C3952C
:100938000E5059E4FCECC39402748094805049E54D
:100948000924B82CFF120AE2E50A2440FFE51075D5
:10095800F008A42FFF120AE2E4F50FC3E50F94088C
:1009680074809480501FAB0BAA0CA90D75F008EC8D
:10097800A4250FF582E435F0F5831209AEFF120ABB
:0C098800EF050F80D60C80AD051080A09C
:010994002240
:1008AA00750BFF750C06750D33750E017B10120959
:1008BA0020750BFF750C06750D33750E017B28121A
:1008CA000920750BFF750C02750D43750E02E4FBCA
:1008DA007D027F0212082B750BFF750C06750D231E
:1008EA00750E027B207D027F02120924750BFF75AB
:1008FA000C06750D43750E017B107D047F021209EB
:10090A0024750BFF750C06750D43750E017B287D4A
:06091A00047F0202092423
:1006A300750BFF750C05750D93750E01E4FBFD7F4E
:1006B30002120924750BFF750C06750D13750E01D7
:1006C3007B08120920750BFF750C05750D93750ECC
:1006D300017B18120920750BFF750C05750DA375A9
:1006E3000E017B20120920750BFF750C05750D9308
:1006F300750E017B30120920750BFF750C05750D06
:10070300E3750E017B38120920750BFF750C01751B
:100713000D63750E017B307D027F0212082B750B72
:10072300FF750C05750D93750E01E4FB7D047F02C7
:10073300120924750BFF750C05750DA3750E017B4E
:10074300087D047F02120924750BFF750C05750DD6
:1007530093750E017B187D047F02120924750BFF2C
:10076300750C05750DA3750E017B207D047F0212A8
:100773000924750BFF750C05750DB3750E017B30E0
:100783007D047F02120924750BFF750C05750DC3DB
:0C079300750E017B387D047F02020924F2
:100A9A00E4FDFCC3ED9FEC9E5015E4FBFA0BBB0092
:0F0AAA00010AEB64D44A70F50DBD00010C80E425
:010AB900221A
:100AD000E4FF120A10E4FF1209DB1208AA1206A3AF
:020AE00080F89C
:1007AB00020AD0E493A3F8E493A34003F68001F28A
:1007BB0008DFF48029E493A3F85407240CC8C3334F
:1007CB00C4540F4420C8834004F456800146F6DF1E
:1007DB00E4800B0102040810204080900AFCE47EA8
:1007EB00019360BCA3FF543F30E509541FFEE49313
:1007FB00A360010ECF54C025E060A840B8E493A3DA
:10080B00FAE493A3F8E493A3C8C582C8CAC583CA04
:10081B00F0A3C8C582C8CAC583CADFE9DEE780BEBC
:010B050000EF
:10099500BB010689828A83E0225002E722BBFE0260
:0909A500E32289828A83E4932293
:1009AE00BB010CE58229F582E5833AF583E02250FE
:1009BE0006E92582F8E622BBFE06E92582F8E22248
:0D09CE00E58229F582E5833AF583E4932262
:00000001FF
