:100000000C942A000C9447000C9447000C94470071
:100010000C9434030C9447000C9447000C94470054
:100020000C9447000C9447000C9447000C94470034
:100030000C9447000C9447000C9447000C94470024
:100040000C9447000C9447000C9447000C94470014
:100050000C94470011241FBECFE5D4E0DEBFCDBF16
:1000600010E0A0E6B0E0E6E0F7E002C005900D92F7
:10007000A437B107D9F710E0A4E7B0E001C01D92A2
:10008000AC37B107E1F70E9451020C9481030C9444
:10009000000017BA919A9DE0892F8A95F1F7929AFC
:1000A000892F8A95F1F786B39A95F1F792989198EE
:1000B00095E89A95F1F708950E94490087FDFCCFD5
:1000C00008951F93182F0E945C008FEF87BB18BB09
:1000D000919890988DE0982F9A95F1F7929A982F91
:1000E0009A95F1F792988A95F1F7909A919A17BAA2
:1000F00085E88A95F1F71F9108951F93182F0E94A4
:100100005C008FEF87BB18BB8DE0982F9A95F1F7B5
:100110009198909A982F9A95F1F7929A8A95F1F77B
:1001200092989098919A17BA85E88A95F1F71F915D
:10013000089581E00E9461000895282F8F3008F013
:100140002FE080E090E0662311F081E090E036E05F
:10015000880F991F3A95E1F78058820F0E9461003D
:100160000895CF93DF93EA010E949D0003C021967A
:100170000E947D0088818823D1F7DF91CF91089577
:100180001F93142F0E949D00812F0E947D001F91BC
:1001900008951F93CF93DF9380E29EE40197F1F7D8
:1001A0001FE3812F0E94610080E00E947D001F5F9D
:1001B0001F37B9F70E94990088EE93E028EC30E0F1
:1001C000F9013197F1F70197D9F7C0E0D0E010E0DD
:1001D000112311F480E402C0812F815C0E94610030
:1001E000E199FECFDFBBCEBBE09A8DB30E947D00CC
:1001F0001F5F2196103361F788EE93E028EC30E022
:10020000F9013197F1F70197D9F781E060E040E01B
:100210000E94C00082E060E041E00E94C00083E0F4
:1002200060E042E00E94C00081E061E043E00E94A3
:10023000C00082E061E044E00E94C00083E061E031
:1002400045E00E94C000DF91CF911F91089588235F
:1002500011F48CE001C08EE00E94610008958823B3
:1002600011F48CE001C08DE00E94610008950F93AD
:100270001F9318BA8FEF87BB12BA81BB88E30E9425
:10028000610080E197E20197F1F788E30E94610045
:1002900008EC10E0C8010197F1F788E30E946100C3
:1002A000C8010197F1F788E30E9461008CE00E9489
:1002B000610081E00E94610086E00E9461001F9160
:1002C0000F91089587E085BD88E082BD8FED84BDE4
:1002D00082B58570E9F780E489BF7894089589B381
:1002E00090E08F709070892B09F4DAC088EE93E06B
:1002F00028EC30E0F9013197F1F70197D9F789B38C
:1003000090E08F709070892B09F4CAC0C89B19C007
:1003100080916F009091700003979093700080938C
:100320006F0080916F0090917000069730F48DE01F
:1003300090E09093700080936F0081E080937A004A
:100340000895C99B53C080917A00813009F04EC056
:1003500082E080937B0080916F00909170000D97F8
:10036000A9F48091740090917500019690937500A6
:10037000809374008091740090917500CC9709F07F
:100380008FC01092750010927400089580916F00D4
:10039000909170000A97A9F480917600909177006F
:1003A00001969093770080937600809176009091EB
:1003B0007700CC9709F074C0109277001092760005
:1003C000089580917800909179000196909379003A
:1003D000809378008091780090917900499709F096
:1003E0005FC010927900109278000895CA9B56C0A1
:1003F00080917A00813009F051C082E080937B00C7
:1004000080916F00909170000D97B1F4809174000D
:10041000909175000197909375008093740080917E
:1004200074009091750097FF3BC08BE390E0909330
:10043000750080937400089580916F009091700012
:100440000A97B1F48091760090917700019790938C
:10045000770080937600809176009091770097FFE7
:100460001FC08BE390E0909377008093760008950F
:100470008091780090917900019790937900809312
:100480007800809178009091790097FF09C088E109
:1004900090E09093790080937800089510927A000C
:1004A00008950F931F93DF93CF93CDB7DEB72E97A9
:1004B0000FB6F894DEBF0FBECDBFDE011596E0E6A5
:1004C000F0E08AE001900D928150E1F780916B009D
:1004D00090916C00A0916D00B0916E0089839A8319
:1004E000AB83BC830E9437010E94990080E00E9488
:1004F0002F010E9499000E94C90088EE93E028EC29
:1005000030E0F9013197F1F70197D9F787E060E022
:10051000AE014F5F5F4F0E94B1008FEF84BB1ABAEC
:1005200087E085BD88E082BD8FED84BD82B5857092
:10053000E9F780E489BF78948E010B5F1F4F8091AB
:10054000740090917500CC9751F51092750010923F
:1005500074008091760090917700019690937700D7
:10056000809376008091760090917700CC97B9F4D3
:100570001092770010927600809178009091790027
:100580000196909379008093780080917800909103
:100590007900489721F410927900109278008091A8
:1005A0007400909175006AE070E00E945A03805DCB
:1005B0008C8780917400909175006AE070E00E94D1
:1005C0005A03605D6B8780917600909177006AE0B6
:1005D00070E00E945A03805D898780917600909137
:1005E00077006AE070E00E945A03605D688780913E
:1005F0007800909179006AE070E00E945A03805D73
:100600008E8380917800909179006AE070E00E947A
:100610005A03605D6D830E946F0180917A00882388
:1006200021F080917B0080FD06C085E061E0A8019B
:100630000E94B10084CF80916F0090917000609112
:10064000710070917200815040E20E94C000809160
:100650006F009091700060917100709172008250F3
:1006600040E20E94C0006BCF1F920F920FB60F9214
:1006700011248F939F938FED84BD02B402FCFDCFB4
:1006800080917A00882351F48091740090917500D4
:100690000196909375008093740005C080917B0053
:1006A0008F5F80937B009F918F910F900FBE0F9073
:1006B0001F90189597FB092E07260AD077FD04D0C6
:1006C0000CD006D000201AF4709561957F4F0895E4
:1006D000F6F7909581959F4F0895AA1BBB1B51E19A
:1006E00007C0AA1FBB1FA617B70710F0A61BB70BA2
:1006F000881F991F5A95A9F780959095BC01CD0147
:060700000895F894FFCFFC
:1007060030303A30303A3030202000415652001016
:0407160000010000DE
:00000001FF
