:040000000C94D10784
:140054000001015400000101590002087200006206207E2E37
:14006800010CC106080000207E2E00000000000000000000DC
:14007C000000000000008000800080008000000080000000F0
:140090000000A000A00000000000000000000000000000001C
:1400A40014007E002800FC0050000000000020007000800032
:1400B80060001000E000200000006400A800D0002C00540068
:1400CC009800000000006000900040009800900060000000D0
:1400E0000000800080000000000000000000000000002000EC
:1400F400400080008000800080004000200080004000200078
:140108002000200020004000800050002000F80020005000EB
:14011C00000000000000000020002000F80020002000000057
:140130000000000000000000000000004000400080000000BB
:1401440000000000F8000000000000000000000000000000AF
:140158000000000080000000000020002000400040008000D3
:14016C008000000000006000900090009000900060000000FF
:1401800000004000C00040004000400040000000000060000B
:140194009000100020004000F0000000000060009000200057
:1401A8001000900060000000000020006000A000F000200013
:1401BC00200000000000F0008000E0001000900060000000BF
:1401D000000020004000E00090009000600000000000F0006B
:1401E4001000200040004000400000000000600090006000C7
:1401F800900090006000000000006000900090007000200063
:14020C0040000000000000000000800000000000800000009E
:1402200000000000000040000000000040004000800000008A
:14023400200040008000400020000000000000000000F00086
:1402480000000000F000000000000000800040002000400092
:14025C00800000000000C0002000400040000000400000006E
:1402700000003C0042009A00AA00B40040003800000020006C
:140284002000500070008800880000000000E0009000E00026
:1402980090009000E0000000000060009000800080009000D2
:1402AC00600000000000E0009000900090009000E0000000DE
:1402C0000000E0008000E00080008000E00000000000E0002A
:1402D4008000E00080008000800000000000600090008000C6
:1402E800B000900060000000000090009000F0009000900032
:1402FC0090000000000080008000800080008000800000005E
:14031000000010001000100010009000600000000000900019
:14032400A000C000C000A000900000000000800080008000F5
:1403380080008000E000000000008800D800A80088008800B9
:14034C008800000000009000D000D000B000B00090000000F5
:14036000000060009000900090009000600000000000E000A9
:1403740090009000E0008000800000000000600090009000F5
:1403880090009000600010000000E00090009000E000A00051
:14039C0090000000000060009000400020009000600000007D
:1403B0000000F8002000200020002000200000000000900011
:1403C400900090009000900060000000000088008800500025
:1403D8005000200020000000000088808880550055002200A5
:1403EC002200000000008800500020002000500088000000EB
:14040000000088005000200020002000200000000000F000A0
:140414001000200040008000F00000000000C0008000800034
:14042800800080008000C000000080008000400040002000E0
:14043C00200010001000C00040004000400040004000C000AC
:1404500000004000A0000000000000000000000000000000B8
:1404640000000000000000000000FC000000800040000000C8
:140478000000000000000000000000000000700090009000E0
:14048C0070000000000080008000E00090009000E00000000C
:1404A000000000000000600080008000600000000000100078
:1404B4001000700090009000700000000000000000006000C4
:1404C800B000800060000000000060008000C00080008000F0
:1404DC0080000000000000000000700090009000700010007C
:1404F000600080008000E00090009000900000000000800088
:14050400000080008000800080000000000040000000400063
:1405180040004000400040008000800080009000E000A0003F
:14052C0090000000000080008000800080008000800000002B
:14054000000000000000F000A800A800A800000000000000BF
:140554000000E00090009000900000000000000000006000A3
:140568009000900060000000000000000000E00090009000FF
:14057C00E0008000800000000000700090009000700010007B
:14059000100000000000A000C00080008000000000000000E7
:1405A40000006000C0002000C0000000000000008000C00003
:1405B80080008000400000000000000000009000900090003F
:1405CC0070000000000000000000A000A000400040000000EB
:1405E000000000000000A800A8005000500000000000000017
:1405F4000000A00040004000A0000000000000000000A00093
:14060800A000400040008000800000000000F000200040006E
:14061C00F000000000002000400040008000800040004000BA
:14063000200080008000800080008000800080008000800016
:140644004000400020002000400040008000640098000000E6
:14065800000000000000000000000202040805070602040462
:14066C00060603060204050305050505050505050203040521
:14068000040408060505050404050502050504060505050505
:1406940005050605060A0606050305030407030505040505EB
:1406A8000405050203050206050505050404030504060404E8
:1406BC00050402040700000000000000000000000000183CC0
:1406D0003C3C1818001818000000666666000000000000000C
:1406E400000036367F3636367F36360000083E6B68683E0BC0
:1406F8000B6B3E080870D8DA760C18306E5B1B0E0000386CA8
:14070C006C386CC7C66E3B000000181818000000000000004B
:1407200000000C1818303030303018180C003018180C0C0CD9
:140734000C0C181830000000361C7F1C360000000000000016
:1407480018187E18180000000000000000000000001818305F
:14075C000000000000007E000000000000000000000000000B
:1407700000181800000006060C0C18183030606000001C367F
:14078400636B6B6B63361C0000000C1C3C0C0C0C0C0C3F0029
:1407980000003C6606060C1830607E0000003C6666061C063D
:1407AC0066663C000000060E1E3666667F06060000007E6094
:1407C00060607C0606663C0000001C3060607C6666663C0045
:1407D40000007E060C0C18181818180000003C6666663C66ED
:1407E80066663C0000003C6666663E06060C380000000000F9
:1407FC001818000000181800000000001818000000181830F9
:140810000000060C18306030180C060000000000007E007EC4
:140824000000000000006030180C060C1830600000003C66B0
:14083800660C18180018180000007EC3C3CFDBDBCFC07F0043
:14084C000000183C6666667E6666660000007C6666667C66D2
:1408600066667C0000003C666060606060663C000000786C34
:1408740066666666666C780000007E6060607C6060607E00D6
:1408880000007E6060607C606060600000003C666060606E92
:14089C0066663E000000666666667E666666660000003C183C
:1408B0001818181818183C00000006060606060666663C003C
:1408C400000066666C6C786C6C666600000060606060606020
:1408D80060607E00000063777F6B6B6363636300000063634D
:1408EC00737B6F676363630000003C666666666666663C00C9
:1409000000007C6666667C606060600000003C6666666666FF
:1409140066663C0C06007C6666667C6C6666660000003C664B
:140928006030180C06663C0000007E18181818181818180021
:14093C00000066666666666666663C000000666666666666D7
:14095000663C18000000636363636B6B6B3E360000006666CC
:14096400663C183C666666000000666666663C181818180023
:1409780000007E06060C183060607E00003C303030303030F3
:14098C00303030303C006060303018180C0C0606003C0C0C93
:1409A0000C0C0C0C0C0C0C0C3C183C660000000000000000ED
:1409B400000000000000000000000000FF30301800000000B8
:1409C80000000000000000003C06063E66663E0000006060CB
:1409DC007C66666666667C00000000003C66606060663C00AD
:1409F000000006063E66666666663E00000000003C66667EE7
:140A040060603C0000001C30303078303030300000000000FE
:140A18003E66666666663E067C0060607C666666666666002E
:140A2C00001818007818181818187E00000C0C003C0C0C0CA0
:140A40000C0C0C0C7800606066666C786C66660000007818C2
:140A54001818181818187E00000000007E6B6B6B6B6B630088
:140A6800000000007C66666666666600000000003C6666662C
:140A7C0066663C00000000007C66666666667C6060000000A8
:140A90003E66666666663E06060000007C666060606060000A
:140AA400000000003E60603C06067C00000030307830303014
:140AB80030301C00000000006666666666663E00000000000C
:140ACC0066666666663C1800000000006363636B6B3E360051
:140AE0000000000066663C183C666600000000006666666642
:140AF40066663E067C0000007E060C1830607E00000C181870
:140B0800181830181818180C0018181818180018181818181D
:140B1C000030181818180C1818181830000076DC0000000047
:140B3000000000000065786974006F6B0077656C636F6D6531
:140B440020746F206D792077696E646F770079616E67676165
:140B58006E6727732077696E646F770079616E6767616E6716
:140B6C000079616E6767616E672031323A30303A30300077FB
:140B8000656C636F6D6520746F206265696A696E67206F6CF6
:140B9400796D7069630001020408102040800000000000002C
:140BA800000000000000000000000000000000000000000039
:140BBC00000000000000000000000000000000000000000025
:140BD000000000000000000000000000000000000000000011
:140BE4000000000000000000000000000000000000000000FD
:140F9000000000000000000000000000000000000000CFE599
:140FA400D8E0CDBFDEBFC051D0400AEA08830024EDECF4E0E7
:140FB80014E0ED3CF10711F00192FBCF0083E5E3FBE0A0E606
:140FCC00B0E01FE0E23AF10721F0C89531960D92F9CF0E9430
:140FE0000B08FFCF22242BBA8FEF8ABB28BA87BB25BA84BBEC
:140FF40022BA81BB0895F894F3DF222425BE2BBE29BE7894D1
:141008000895F7DF222428BA0E94C30E08952597F8DFD0C006
:14101C008AEA90E09B838A83222428822DE00FE00E94CD094D
:1410300081E08C8380E48A8380E88883222700270E94E70D52
:1410440081E08A838AE088832FE100E30E944A0D81E08A835B
:141058008AE088832FE10FE30E944A0D81E08A838AE0888331
:14106C002FE10EE40E944A0D81E08A838AE088832EE20AE395
:141080000E944A0D81E08A838AE088832EE206E40E944A0D8D
:141094000E94BD0B08EB1BE00E94E7080E94820B0E94BD0BC6
:1410A80081E08C838AE08A8388832AE00AE00E94E70D81E057
:1410BC008C838AE08A8388832AE00EE10E94190E88E990E0EC
:1410D0009B838A832224288229E10AE00E94CD098FE890E09E
:1410E4009B838A8381E0888328E20AE00E94CD090E94BD0B8B
:1410F80008EB1BE00E94E7080E94820B0E94BD0B8DE790E0E8
:14110C009B838A832224288222E00EE10E94CD0982E08C83DA
:141120008BE08A8380E88883222700270E94190E81E08C8327
:1411340080E48A8380E88883222700270E94E70D88E690E0DF
:141148009B838A83222428822EE104E10E94CD0985E690E031
:14115C009B838A832224288222E300E50E94CD0980E690E02C
:141170009B838A832224288222E304E60E94CD0982E08C8378
:141184008AE08A838FE0888320E30FE40E94190E82E08C8336
:141198008AE08A8384E1888320E303E60E94190E0E94BD0B3D
:1411AC0008EB1BE00E94E7080E94820B0E94BD0B2FCF25965E
:1411C0000895802F8150082F8823D9F708950E94740F0AC0C0
:1411D40044EF51E002C04150504040304507D9F70150104093
:1411E8000030010799F70E94770F0895F80104910895F80142
:1411FC000591149108950E94110F0E946C0F239709891A8939
:141210000E94FA08098309891A890F5F1F4F0E94FA080A8358
:1412240009891A890E5F1F4F0E94FD086801662728C080E8B9
:14123800A82E86010E94FA08402FC60101966C01EE2419C07C
:14124C00242E2A2051F00B880882262F0F84200D0E2D0D84B3
:14126000000D0E94C10BA69449F480E8A82E86010E94FA081F
:14127400402FC60101966C01E3940980E01420F363950A80A3
:141288006015A8F223960E94690F249608950E94110F0E94B5
:14129C006C0F23978F858770882E662480E88A83AD846AC0EE
:1412B000CF84C694C694C6944B8968E0681985EC90E0E82D36
:1412C400FF27E80FF91FE080262C33240D881E88200C311C24
:1412D8003982288243C0088119818F926F920E94FA086F90B2
:1412EC008F90202E0A80202081F080E88C9D10018DEC90E0BB
:14130000280E391E4A2C5524420C531CF20120802E28208215
:1413140011C080E88C9D10018DEC90E0280E391E4A2C5524ED
:14132800420C531C2E2C2094F2013080322030822090C500CA
:14133C0027FE02C0E69401C0EE0C4A956A9521F468E0C394EF
:14135000E090C500288039804F885524420C531C5982488241
:14136400442321F08C2D883008F4B7CF2A8026942A82022CCC
:14137800222019F480E88A836394A3942D840988200CA2144B
:14138C0008F490CF23960E94690F249608953A932A930E949C
:1413A0006C0F402F62974D870024088A8AE00E8C809DF001BA
:1413B4008FE590E0E80FF91FE491E98B8AE00E8C809DF00137
:1413C8008EE590E0E80FF91FE491EE878AE00E8C809DF00123
:1413DC0083E690E0E80FF91F05901490F001FC87EB878AE08C
:1413F0000E8C809DF00180E690E0E80FF91F05901490F00132
:14140400FA87E9878AE00E8C809DF00185E690E0E80FF91FE7
:14141800E491EF878AE00E8C809DF00186E690E0E80FF91FD8
:14142C0044918AE00E8C809DF00182E690E0E80FF91FC4908A
:141440000888002031F008A119A10E94FA08E02E67C0E8A102
:14145400F9A1E08063C00F84E01410F04E1548F48AE00E8C3D
:14146800809DF00187E690E0E80FF91FE4900F84E018CC208B
:14147C0051F42B843C840E2D1127020D131D0E94FA08A02E84
:1414900001C0AC2C69890E84E09C069E100149845A84240C1F
:1414A400351C38862F828FE70D84801508F48D872D842A0CE1
:1414B80080E8821528F48FE70D8480198F5FA82E8FE30C8C97
:1414CC00801508F48C8F2C8C260E80E4821520F46FE30C8C7B
:1414E00060196F5F0E840E822F8038843D822C826A83A882A0
:1414F4002C8D0D85CEDE0D840A0C0D8688A199A1019699A37D
:1415080088A30888002029F08C010E94FA08E02E03C0E8A150
:14151C00F9A1E080EE2009F09ACF62960E94690F22960895EA
:141530003A932A930E946C0F402F62974D8700240394088A77
:141544008AE00E8C809DF0018FE590E0E80FF91FE491E98BA5
:141558008AE00E8C809DF0018EE590E0E80FF91FE491EE8791
:14156C008AE00E8C809DF00183E690E0E80FF91F0590149038
:14158000F001FC87EB878AE00E8C809DF00180E690E0E80F92
:14159400F91F05901490F001FA87E9878AE00E8C809DF001FE
:1415A80085E690E0E80FF91FE491EF878AE00E8C809DF00148
:1415BC0086E690E0E80FF91F44918AE00E8C809DF00182E6E1
:1415D00090E0E80FF91FC4900888002031F008A119A10E945E
:1415E400FA08E02E67C0E8A1F9A1E49063C00F84E01410F07B
:1415F8004E1548F48AE00E8C809DF00187E690E0E80FF91F42
:14160C00E4900F84E018CC2051F42B843C840E2D1127020DA9
:14162000131D0E94FA08A02E01C0AC2C69890E84E09C069ED7
:14163400100149845A84240C351C38862F828FE70D8480155A
:1416480008F48D872D842A0C80E8821528F48FE70D848019DC
:14165C008F5FA82E8FE30C8C801508F48C8F2C8C260E80E4B0
:14167000821520F46FE30C8C60196F5F0E840E822F803884FD
:141684003D822C826A83A8822C8D0D8502DE0D840A0C0D8669
:1416980088A199A1019699A388A30888002029F08C010E94E5
:1416AC00FA08E02E03C0E8A1F9A1E490EE2009F09ACF629658
:1416C0000E94690F229608950E94700F602F442713C0AA24EB
:1416D4000DC080E8849F10018DEC90E0280E391EEA2DFF27E6
:1416E800E20DF31D6083A3948A2D803880F34395483058F358
:1416FC003ED00E94630F08950027E0DF38D008950E946E0F71
:14171000422F602F469546954695A62EA694A694A6946A2D1B
:1417240025C023E0062F08540E94820E23E000E40E94820EED
:1417380080E8869F50018DEC90E0A80EB91ECC240FC08C2DD1
:14174C00803430F4F50101915F010E943A0E05C0F501019192
:141760005F010E944C0EC3948C2D803870F363954617C8F6DB
:141774000E94660F08952FE30027C6DF08950E94700F8FE79B
:14178800801718F08FE3821708F438C0422F469546954695AD
:14179C00622F677085EC90E0E62FFF27E80FF91F608180E85D
:1417B000849F10018DEC90E0280E391E402F5527420D531DD1
:1417C400AE80BB24AA2011F4BB2079F0C5018130E0E09E0715
:1417D80029F08230E0E09E0769F010C0FA012080262A208217
:1417EC000BC0262E2094FA0130803220308204C0FA01208008
:14180000262620820E94630F08953A932A930E946C0F802EE0
:1418140027970B888014F9F40D880989001650F48D820988CD
:141828000E828B880D88098A0D800B8A0E800D8ACD880988B4
:14183C00C018EE2409C00F88088229892E0D082D0F9399DF88
:141850008F90E394CE14A8F718C109880D890016E9F40B88E7
:14186400081450F48D8209880E828B880D88098A0D800B8A83
:141878000E800D8ACB88C818EE2409C00F8808822989082D21
:14188C000E0D8F9278DF8F90E394CE14A8F7F7C00B88081438
:1418A00050F48D8209880E828B880D88098A0D800B8A0E80D5
:1418B4000D8A282C33244B88552442185308298833246D88E0
:1418C8007724621873086414750454F42D88332469887724AB
:1418DC0062187308641475040CF463C0CB88C8182D88098876
:1418F000201888EC829D80012C2D33270E941A0FB80149898F
:14190400EE244FC02E2D33278B010E94500F28EC30E00E94A6
:141918001A0FA02E29883324A20CB31C2E2D33278B010E945C
:14192C00500F28EC30E00E94160F0436E0E01E0714F0A39403
:141940000FC02E2D33278B010E94500F28EC30E00E94160F97
:141954008CE99FEF801791070CF0AA940F880C82AA82282C6E
:141968002E0C2882242F022D8F924BDF8F902D88098820181D
:14197C002C1430F00D89001618F44A2D4F5F0CC029880D8808
:1419900020182C1430F00989001618F44A2D415001C04A2DB7
:1419A400E394CE1408F0AECF6EC00D880989001650F48D82A3
:1419B80009880E828B880D88098A0D800B8A0E800D8ACD8823
:1419CC000988C0182B88281888EC829D80012C2D33270E9442
:1419E0001A0FB801482DEE244DC02E2D33278B010E94500F3B
:1419F40028EC30E00E941A0FA02E282C3324A20CB31C2E2D9F
:141A080033278B010E94500F28EC30E00E94160F0436E0E0FE
:141A1C001E0714F0A3940FC02E2D33278B010E94500F28EC31
:141A300030E00E94160F8CE99FEF801791070CF0AA940F88C8
:141A44000C8229882E0C2A82A882222D042F8F92DADE8F90C5
:141A58002B8828182C1430F00B88801418F44A2D4F5F0BC004
:141A6C00282C0B8820182C1428F0081418F44A2D415001C0FE
:141A80004A2DE394CE1408F0B0CF27960E94690F22960895DF
:141A94000E94110F0E946C0F2197E988CC24DD246D850B84C4
:141AA8006019AF84BB2482E00A2C809D43E050E040195109E4
:141ABC007FC0E8822D8533272A0D3B1D0B8511270C0D1D1DB7
:141AD00058DEE8822D8533272A193B090B8511270C0D1D1DB4
:141AE4004EDEE8822D8533272A0D3B1D0B8511270C191D09AA
:141AF80044DEE8822D8533272A193B090B8511270C191D09A8
:141B0C003ADEE8822D8533272C0D3D1D0D8511270A0D1B1D8B
:141B2000262E3324021913092CDEE8822D8533272C193D09C4
:141B34000D8511270A0D1B1D262E3324021913091EDEE8823C
:141B48002D8533272C0D3D1D0D8511270A191B09262E33242E
:141B5C000219130910DEE8822D8533272C193D090D85112785
:141B70000A191B09262E33240219130902DE4030E0E05E07C3
:141B840054F404E010E096010E94500FC8010696480F591F65
:141B98000EC096012A193B0904E010E00E94500FC8010A960F
:141BAC00480F591FC50101975C01C60101966C01AC14BD044F
:141BC0000CF07DCF21960E94690F249608950E946C0F422F13
:141BD400A02E25976F85C988EB886A95CA94EC824A832A2CCD
:141BE800260E2882242F0A2D0CDEEC82242E2C0C2A82A882C9
:141BFC00242F0A2D04DEEC82242E2C0C2A824A2C460E488231
:141C1000222D0A2DFADDEC82242E2C0C2A822A2C260E28828B
:141C2400242F022DF0DD25960E94690F08950E94110F0E9487
:141C38006C0FE22E2597CB88AD886F89CC2009F410C0CA94BA
:141C4C004E2D09C06C834A832F842C0C2882242F0F85D5DD56
:141C600043952E2C2A0C421598F325960E94690F24960895FA
:141C74000E94740F402F6ED0C29AC398C49A4BBB02E00E94EB
:141C8800E108C49802E00E94E1080E94770F08950E94740FAC
:141C9C00402F5FD0C29AC398C49A4BBB02E00E94E108C498B2
:141CB00002E00E94E1080E94770F08950E94740F402F4AD040
:141CC400C298C398C49A4BBB02E00E94E108C49802E00E94A6
:141CD800E1080E94770F08950E94740F402F3BD0C298C398F6
:141CEC00C49A4BBB02E00E94E108C49802E00E94E1080E94A8
:141D0000770F08950E94720F622F402F613011F4042FD4DF0D
:141D1400623011F4042FE2DF633021F4042FCCDF042FDCDFBC
:141D28000E94600F08950E94720F622F402F613011F4042F0D
:141D3C009BDF623011F4042FA9DF633021F4042F93DF042F47
:141D5000A3DF0E94600F0895C09AC1980895C098C19A0895AF
:141D6400C098C1980895C09AC19A089501E00895C298C39A96
:141D78008FEF8BBBC49A0BB3C4980078089508EB0E94E10888
:141D8C0023E000ECB9DF23E00FE3B6DF0895089508950E94B9
:141DA000720F622F402F6695669566958FE3841750F44054D8
:141DB400062F085493DF042F005C90DF0C818EDF08C0062F23
:141DC800085478DF042F005C75DF0C8173DF0E94600F0895E4
:141DDC000E94720F622F402F6695669566958FE3841740F49E
:141DF0004054062F085474DF042F005C71DF06C0062F085431
:141E04005BDF042F005C58DF0E94600F08950E94740F402F88
:141E1800042F2CDF0E94770F08953A932A931A930A93089542
:141E2C006894DA92D12E04C0E894DA92D12ED32617FF04C0BD
:141E4000109500950F5F1F4F37FF04C0309520952F5F3F4FE8
:141E54000E94370FD7FE04C0109500950F5F1F4FD9900895DD
:141E6800689401C0E894EA92FA928A93EE24FF2480E1000F63
:141E7C00111FEE1CFF1CE216F30618F0E21AF30A03958A9554
:141E9000A1F716F40E2D1F2D8991F990E99008950A921A9214
:141EA4008A939A93029FC001129F900D039F900D8C0199913A
:141EB8008991199009900895E2E00C94780FE4E00C94780F49
:141ECC00E8E00C94780FEE270C94780FFA92EA92DA92CA9207
:141EE000BA92AA927A936A935A934A930895E1E04991599170
:141EF400E0FD089569917991E1FD0895A990B990E2FD0895E3
:0E1F0800C990D990E3FD0895E990F9900895ED
:00000001FF
