:100000000C9446000C9465000C9465000C946500FB
:100010000C9465000C9465000C9465000C946500CC
:100020000C9465000C9465000C9465000C946500BC
:100030000C9465000C9465000C9465000C946500AC
:100040000C9465000C9465000C9465000C9465009C
:100050000C9465000C9465000C9465000C9465008C
:100060000C9465000C9465000C9465000C9465007C
:100070000C9465000C9465000C9465000C9465006C
:100080000C9465000C9465000C94650011241FBE4F
:10009000CFEFD0E1DEBFCDBF18E0A0E0B1E0E2EFEE
:1000A000F2E000E00BBF02C007900D92A038B1074C
:1000B000D9F718E0A0E8B8E001C01D92A038B10758
:1000C000E1F70E9433010C9477010C94000008952D
:1000D0008091001583708330D9F70895982F80910F
:1000E000001583708330D9F7909300140895982FEA
:1000F0008091001583708330D9F79093001508958F
:10010000982F8091001583708330D9F79093001455
:100110008091001583708330D9F76093001508959E
:10012000982F8091001583708330D9F79093001435
:100130008091001583708330D9F76093001480910B
:10014000001583708330D9F740930015089580E837
:1001500085BF10926D0085E080936C0008958FEF4D
:1001600084BB15BA85BB80E885BF10926D0085E021
:1001700080936C008091001583708330D9F71092C2
:1001800000148091001583708330D9F71092001409
:100190008091001583708330D9F782E48093001535
:1001A0008091001583708330D9F78EE1809300141D
:1001B0008091001583708330D9F7109200148091DC
:1001C000001583708330D9F783E480930015809104
:1001D000001583708330D9F787EA809300158091EA
:1001E000001583708330D9F780E8809300158091E3
:1001F000001583708330D9F788E98093001508953E
:10020000AC018091001583708330D9F710920014EF
:100210008091001583708330D9F71092001480917B
:10022000001583708330D9F782E48093001520E0B5
:1002300030E090ECFA01E20FF31FE08180910015AD
:1002400083708330D9F7E093001480910015837098
:100250008330D9F7909300152F5F3F4F87E0203808
:10026000380741F708950E94AF0080E091E00E94B6
:1002700000019FEF9FBD8AE08EBD1DBC1CBC17BE58
:1002800010927D0097BB40E050E060E020E030E05D
:10029000EFEFF3E0662341F42F5F3F4F83E0203F11
:1002A000380740F061E006C021503040223031056F
:1002B00008F460E03BBD2ABDCF01821B930B99BDC2
:1002C00088BD809178009091790001969093790093
:1002D000809378004F5F5F4F509379004093780090
:1002E00083E0403F5807B0F240E050E0D3CFF894AD
:0202F000FFCF3E
:1002F20000000000000000000000000000000000FC
:1003020000000000000000000000000000000000EB
:1003120000000000000000000000000000000000DB
:1003220000000000000000000000000000001F8F1D
:10033200E0000001FC7C00000007FC03F800000064
:10034200000000000000000000000003FFFFF000BA
:100352000003FFFF0000000FFE0FFE000000000080
:10036200000000000000000003FFF0F83F0000035F
:1003720087EFBFFF001E0F0F0F000003FF000000FA
:1003820000000000000007FE00703F80000703C36A
:10039200FFFFC01C071E0780001FFFE3FFF9FFFFDE
:1003A200FFFF00000F000070F1C000070381F0039F
:1003B200C01C071C0300003F01F3FFF9FFFFFFFF12
:1003C200E0000E000030E0E0000F0300E001E01C5E
:1003D200071C07FC00780079801F803F0001F000B5
:1003E2001E000031C0F0000E03007000E0F807FCB0
:1003F20007FF00F0003DC01F803F00007C001C0092
:100402000061C070000E03807000E1F807F8000F71
:1004120001E0001DC01F807700001E001C0000616B
:10042200C038001C01C03000E1C00078000383C066
:10043200000EE00F007700000E001C000061C03CBF
:10044200001C03E03000E380007800038380000E8C
:10045200E00F006700000F000E0001E0E01C003812
:1004620003F03000E380007000038380000F600F10
:1004720000E7000007000F0007E0F01C003807F05B
:100482007000E38000700001C7800007700E00E773
:10049200000007801FF807E0701C00700799FF80BA
:1004A200E38000E00001C7000007700601C70000FA
:1004B20003801C000000383E00F00F0FFF80E38035
:1004C20000E00001C7007807380601C700F8038082
:1004D200380000003C7E00E00E01C380E38001C0D2
:1004E2000001C700FC073800038700FC03803800C6
:1004F20000001FF701E00E01C380E38001C000018C
:10050200C700FC071C00038700FC038038000000C2
:1005120007C701C00E01C380E381F9CFFF01C70005
:10052200FC071C00030700FC0380380000000007E2
:1005320003800E01C380E381F9DEFF01C700FC07DF
:100542000C00070700F80380380000000007038052
:100552000E01C380E381F9F83701C700FC070E00E2
:10056200070700C00700380000000FC703800E0114
:10057200C380E381F8F03F01C700FC070E000E07BD
:1005820000C007003C0000001CEE03800E01C38087
:10059200E381F8E01F01C7001C0707000E0700C037
:1005A2000F001FF807F0387E03800E01C380E3813D
:1005B200F8E00F01C7001C0707000C0700C01E006F
:1005C2000FF807F0003C03800E01C380E38000E0D7
:1005D2000F01C7001C0703001C0700C03C000F806E
:1005E2000070003803C00E01C380E3800060070181
:1005F200C7001C0703801C0700C038000E0000382B
:10060200003801F00E01C380E38000700301C700CF
:100612001C070380380700C01C001C0000180038AB
:1006220000780E01C380E38000380381C7001C07F5
:1006320001C0380700C01C001C00001800780038F8
:100642000E01C380E38000380181C7001C0701C08E
:10065200300700E00E001C000018007000380E0188
:10066200C380E380003C01C1C7001C0700C07007C3
:1006720000E00E001C00003C00F000380E01C380B8
:10068200E381F83C01C1C700FC0700E0700700F0FD
:100692000F001C00003803F800380E01C380E3810C
:1006A200F83E01C1C700FC0700E0E00700F00700C8
:1006B2001E00007007BE00380E01C380E381F83FC0
:1006C20001C38700FC070070E00700F807000E0076
:1006D20007E0060F00380E01C380E381F83F03C331
:1006E2008700FC070071C00700F803800FFC078039
:1006F200060700380E01C380E381F83B8783870039
:10070200FC070031C00700FC038007FC070000075C
:1007120080380E01DF80E381F83FFE038700FC078B
:100722000039800700FC01C003C00E00000700383A
:100732000E01FF80E380003FFC038700FC07003BC3
:10074200800700EE01C007800C00000700380E0190
:10075200F800E380003E00038700FC07001F8007CB
:10076200FFEFFFC007001C00000700380E01F00079
:10077200E380003E000387FFFFFF001F0007FFEF3B
:10078200FFE007001800000700380E01F000E380C8
:10079200003E000387FFFFFF000F00000000000083
:1007A20007001801C00F00380E01F000E380003E80
:1007B200000380000000000E00000000000007009F
:1007C2001C03E00E00380E01F000E380007E0007FB
:1007D20000000000000600000000000007000C07F7
:1007E200F01E00380E01F000E1C0007E000F000094
:1007F2000000000600000000000007800E1F781CA9
:1008020000380E01F000E1E000FE001E00000000D2
:10081200000000000000000003C03FFC3E7C0038E6
:100822001F01F801C0FFFFF70038000000000000C0
:1008320000000000000003FFFBF00FF8003C1F83E4
:10084200FE07C03FFFC7FFF00000000000000000ED
:100852000000000000FFE00007E0001FFFFF9FFF15
:1008620080000003FFF00000000000000000000014
:100872000000000000000000000000000000000076
:100882000000000000000000000000000000000066
:100892000000000000000000000000000000000056
:1008A2000000000000000000000000000000000046
:1008B2000000000000000000000000000000000036
:1008C2000000000000000000000000000000000026
:1008D2000000000000000000000000001CCF99F39F
:1008E200303CC45B8E658383C5DC000000000000E1
:1008F20000000000000000000000088911222026EC
:10090200446644460642666400000000000000009F
:1009120000000000000000000CD19A334042444025
:1009220042440404244400000000000000000000CF
:1009320000000000000004D09A1340424441C284E7
:100942000404244400000000000000000000000035
:10095200000000000560AC15804244464384042434
:10096200244400000000000000000000000000001D
:1009720000000320640C80244C4441840642444419
:100982000000000000000000000000000000000065
:1009920002204408843C36E7E10E2383CFFE0000A8
:1009A2000000000000000000000000000000000045
:1009B2000000000000000000000000000000000035
:1009C2000000000000000000000000000000000025
:1009D2000000000000000000000000000000000015
:1009E2000000000000000000000000000000000005
:1009F20000000000000000000000000000000000F5
:100A020000000000000000000000000000000000E4
:100A120000000000000000000000000000000000D4
:100A220000000000000000000000000000000000C4
:100A320000000000000000000000000000000000B4
:100A420000000000000000000000000000000000A4
:100A52000000000000000000000000000000000094
:100A62000000000000000000000000000000000084
:00000001FF
