:03000000020141B9
:0C014100787FE4F6D8FD758120020106ED
:0A016100C0F9A4B0999282F88090D2
:07016B00AE071FEE70FA223F
:0D013400D29000D29100C29000C291002232
:0A014D00C29000D29100D29000226F
:0A015700D291002090FDC291002219
:10012400300004D2908002C290D29100C291002289
:10003600E4FEEEC39408748094805020EF30E70409
:10004600D2908002C29000D2910000000000C291BE
:0F0056000000000000EF25E0FF0E80D6020157EA
:10006500D29000E4FEEEC3940874809480501BD2B5
:10007500910000000000EF25E0FDA290E4334DFF64
:0F008500C29100000000000E80DBC200020124C7
:0200E200AD0768
:1000E4001201347F90120036ED4440FF12003612A4
:1000F40001347F91120036120065D20012012402ED
:02010400014DAB
:10009400E4FEEEC3940874809480501AC2A1A806AA
:1000A400EF088002C333D8FC30E704D2A28002C236
:0600B400A2D2A10E80DCC7
:0100BA002223
:1000BB007DFF7F201200D1EC75F06484E5F075F0C4
:0600CB000A8493FD7F4052
:1000D100C2A0120094AF05120094D2A07F240201A5
:0100E1006BB3
:10000300AC07EC75F0648490016193FD7F201200CE
:10001300D11200BB1200BB7DFF7F401200D1EC75F3
:10002300F00A84E5F093FD7F801200D17DFF7F808D
:030033000200D1F7
:10010600D280E4FF1200E2AB07120003D3EB946443
:0E011600748094804004C28080E8D28080E42F
:00000001FF
