:0300000002055B9B
:0C055B00787FE4F6D8FD75813502054E6E
:10000300FF1FEFF7F7EF1FFFFFF0EFDFDFEFF0FF6B
:10001300FFEFEF07FFFFFFFFFFDFDFC0DFDFFFFFC4
:10002300FF8FF7F7F7778FFFFFCFD7DBDDDECFFF4C
:10003300FFCFF77777B7CFFFFFE7DFDFDFEEF1FF24
:10004300FFFF3FDFEF07FFFFFFF8FBDBDBC0DBFF5B
:10005300FF07F77777F7F7FFFFE6DEDFDFEEF1FF66
:10006300FF1FEF7777E7FFFFFFF0EEDFDFEEF1FF34
:10007300FFC7F7F737C7F7FFFFFFFFC0FFFFFFFF1C
:10008300FF8F77F7F7778FFFFFE3DDDEDEDDE3FF3B
:10009300FF1FEFF7F7EF1FFFFFFFCEDDDDEEF0FFF2
:1000A300FFFFFFFFFFFFFFFFFFFFFFFFFFFFFFFF5D
:1000B300FFFFFFFFFFFFFFFFFFFEFEFEFEFEFEFE54
:1000C300FFFFFF3F3FFFFFFFFFFFFFCFCFFFFFFF1D
:1000D30000001010F8000000000020203F20200046
:1000E300007008080808F00000302824222130009E
:1000F30000300808088870000018202121221C0005
:100103000000804030F8000000060524243F24242A
:1001130000F88888880808000019202020110E00A4
:1004A100C2A28D807F027E001204B2D2A47F027E9E
:1004B10000D3EF9400EE94004007EF1F70F31E800D
:0204C100F02227
:1004E500C2A3D2A2E4F580D2A47F02FE1204B2AF69
:1004F50080C2A4530780EF7003D38001C350E52267
:10052F00E5082440FFAD071204E5C2A31204A1C2DF
:02053F00A422F4
:0D054100AD071204E5D2A31204A1C2A4224A
:100505001204E5D2A3D2A2C2A41204ACAD80120497
:06051500AEC2A4AF0522F6
:1004C300EF14600F14601114601324037013C2A09F
:1004D300C2A122C2A0D2A122D2A0C2A122D2A0D262
:0204E300A12254
:100446001204C3E4FCECC39408748094805025EC39
:1004560024B8FF120534E4FBEBC394407480948007
:10046600500FEB2440FF120534E4FF1205410B80C8
:05047600E70C80D1221B
:10047B00AD071204E5AF051204C31204467F3E120A
:10048B0005347FB81205347FC01205347F40120546
:06049B00347F3F0205342E
:1002A1008D1C8B1D1204C3E4F522E522C395215058
:1002B1006DE4F523C3E523940274809480505BE5DB
:1002C1001C24B82523FF120534E51D2440FFE52237
:1002D100C454F02FFF120534E4F524C3E52494102F
:1002E100748094805030E52275F020A4AB1E252047
:1002F100F9E51F35F0FAE52375F010A47C002524FB
:10030100FFEC35F0FEE92FF9EA3EFA120400FF1284
:0F0311000541052480C50523809A0522808C2292
:100320008D268B27E4FCF52CF52D1204C3E4F52D66
:10033000E52DC3952B5059E4FCECC39402748094D2
:10034000805049E52624B82CFF120534E5272440C7
:10035000FFE52D75F008A42FFF120534E4F52CC33A
:10036000E52C940874809480501FAB28AA29A92AF0
:1003700075F008ECA4252CF582E435F0F583120421
:1003800019FF120541052C80D60C80AD052D80A0EB
:01039000224A
:100391008D2F8B301204C3C3E53094407480948058
:1003A100400674C02530F530E4F534C3E5349408D3
:1003B100748094805048E52F24B82534FF12053409
:1003C100E5302440FF120534E4F535C3E5359440AA
:1003D100748094805024E53475F040A4AB3125330A
:1003E100F9E53235F0FA7E00E92535F9EE3AFA12EF
:0F03F1000400FF120541053580D1053480AD228F
:100123008F088D098B0AE4FCECC3940874809480D7
:100133005009740B2CF8E4F60C80EDC3E5089440E9
:100143007480948050077F011204C3800B7F0212D6
:1001530004C374C02508F5087C01ECC394077480BC
:10016300948040030201F8EC24B8FF120534120511
:100173002F12050512050574132CF8A607E50A606E
:1001830031E509131313541F240BF8C000E6FFE5F0
:10019300095407FEF87401088002C333D8FC4FD01A
:1001A30000F674132CF8C000E6FF740B2CF8E64F2E
:1001B3008030E509131313541F240BF8C000E6FF26
:1001C300E5095407FEF87401088002C333D8FCF430
:1001D3005FD000F674132CF8C000E6FF740B2CF804
:1001E300E65FD000F612052F74132CF8E6FF120514
:0601F300410C02015D2237
:10051B007528FF752900752A13752B01E4FBFD7FE8
:04052B0002020320A5
:1001F9007528FF752900752AB3752B017B10E4FD5D
:100209007F011203207528FF752900752AB3752B04
:10021900017B28E4FD7F011203207528FF75290061
:10022900752AA3752B027B207D027F01120320759D
:1002390028FF752900752AC3752B017B107D047F62
:10024900011203207528FF752900752AC3752B0132
:100259007B287D047F011203207528FF752900750D
:100269002AD3752B017B22E4FD7F02120320752816
:10027900FF752900752AE3752B017B227D027F0218
:100289001203207528FF752900752AF3752B017B48
:08029900227D047F0202032014
:0D054E00E4FF12047B1200001201F980FB93
:10040000BB010689828A83E0225002E722BBFE02FA
:09041000E32289828A83E493222D
:10041900BB010CE58229F582E5833AF583E0225098
:1004290006E92582F8E622BBFE06E92582F8E222E2
:0D043900E58229F582E5833AF583E49322FC
:00000001FF
